{
	"contracts/campaign.sol": {
		"Campaign": {
			"abi": [
				{
					"inputs": [
						{
							"internalType": "uint256",
							"name": "minimum",
							"type": "uint256"
						},
						{
							"internalType": "address",
							"name": "creator",
							"type": "address"
						}
					],
					"stateMutability": "nonpayable",
					"type": "constructor"
				},
				{
					"inputs": [
						{
							"internalType": "uint256",
							"name": "_index",
							"type": "uint256"
						}
					],
					"name": "approveRequest",
					"outputs": [],
					"stateMutability": "nonpayable",
					"type": "function"
				},
				{
					"inputs": [
						{
							"internalType": "address",
							"name": "",
							"type": "address"
						}
					],
					"name": "approvers",
					"outputs": [
						{
							"internalType": "bool",
							"name": "",
							"type": "bool"
						}
					],
					"stateMutability": "view",
					"type": "function"
				},
				{
					"inputs": [],
					"name": "contribute",
					"outputs": [],
					"stateMutability": "payable",
					"type": "function"
				},
				{
					"inputs": [
						{
							"internalType": "string",
							"name": "_description",
							"type": "string"
						},
						{
							"internalType": "uint256",
							"name": "_value",
							"type": "uint256"
						},
						{
							"internalType": "address",
							"name": "_recipient",
							"type": "address"
						}
					],
					"name": "createRequest",
					"outputs": [],
					"stateMutability": "nonpayable",
					"type": "function"
				},
				{
					"inputs": [
						{
							"internalType": "uint256",
							"name": "_index",
							"type": "uint256"
						}
					],
					"name": "finalizeRequest",
					"outputs": [],
					"stateMutability": "nonpayable",
					"type": "function"
				},
				{
					"inputs": [],
					"name": "manager",
					"outputs": [
						{
							"internalType": "address",
							"name": "",
							"type": "address"
						}
					],
					"stateMutability": "view",
					"type": "function"
				},
				{
					"inputs": [],
					"name": "minimumContribution",
					"outputs": [
						{
							"internalType": "uint256",
							"name": "",
							"type": "uint256"
						}
					],
					"stateMutability": "view",
					"type": "function"
				},
				{
					"inputs": [
						{
							"internalType": "uint256",
							"name": "",
							"type": "uint256"
						}
					],
					"name": "requests",
					"outputs": [
						{
							"internalType": "string",
							"name": "description",
							"type": "string"
						},
						{
							"internalType": "uint256",
							"name": "value",
							"type": "uint256"
						},
						{
							"internalType": "address",
							"name": "recipient",
							"type": "address"
						},
						{
							"internalType": "bool",
							"name": "complete",
							"type": "bool"
						},
						{
							"internalType": "uint256",
							"name": "approvalCount",
							"type": "uint256"
						}
					],
					"stateMutability": "view",
					"type": "function"
				}
			],
			"devdoc": {
				"kind": "dev",
				"methods": {},
				"version": 1
			},
			"evm": {
				"assembly": "    /* \"contracts/campaign.sol\":74:2024  contract Campaign {\r... */\n  mstore(0x40, 0x80)\n    /* \"contracts/campaign.sol\":625:744  constructor(uint minimum, address creator) {\r... */\n  callvalue\n  dup1\n  iszero\n  tag_1\n  jumpi\n  0x00\n  dup1\n  revert\ntag_1:\n  pop\n  mload(0x40)\n  sub(codesize, bytecodeSize)\n  dup1\n  bytecodeSize\n  dup4\n  codecopy\n  dup2\n  dup2\n  add\n  0x40\n  mstore\n  dup2\n  add\n  swap1\n  tag_2\n  swap2\n  swap1\n  tag_3\n  jump\t// in\ntag_2:\n    /* \"contracts/campaign.sol\":689:696  creator */\n  dup1\n    /* \"contracts/campaign.sol\":679:686  manager */\n  0x00\n  dup1\n    /* \"contracts/campaign.sol\":679:696  manager = creator */\n  0x0100\n  exp\n  dup2\n  sload\n  dup2\n  0xffffffffffffffffffffffffffffffffffffffff\n  mul\n  not\n  and\n  swap1\n  dup4\n  0xffffffffffffffffffffffffffffffffffffffff\n  and\n  mul\n  or\n  swap1\n  sstore\n  pop\n    /* \"contracts/campaign.sol\":729:736  minimum */\n  dup2\n    /* \"contracts/campaign.sol\":707:726  minimumContribution */\n  0x01\n    /* \"contracts/campaign.sol\":707:736  minimumContribution = minimum */\n  dup2\n  swap1\n  sstore\n  pop\n    /* \"contracts/campaign.sol\":625:744  constructor(uint minimum, address creator) {\r... */\n  pop\n  pop\n    /* \"contracts/campaign.sol\":74:2024  contract Campaign {\r... */\n  jump(tag_6)\n    /* \"#utility.yul\":7:150   */\ntag_8:\n    /* \"#utility.yul\":64:69   */\n  0x00\n    /* \"#utility.yul\":95:101   */\n  dup2\n    /* \"#utility.yul\":89:102   */\n  mload\n    /* \"#utility.yul\":80:102   */\n  swap1\n  pop\n    /* \"#utility.yul\":111:144   */\n  tag_10\n    /* \"#utility.yul\":138:143   */\n  dup2\n    /* \"#utility.yul\":111:144   */\n  tag_11\n  jump\t// in\ntag_10:\n    /* \"#utility.yul\":7:150   */\n  swap3\n  swap2\n  pop\n  pop\n  jump\t// out\n    /* \"#utility.yul\":156:299   */\ntag_12:\n    /* \"#utility.yul\":213:218   */\n  0x00\n    /* \"#utility.yul\":244:250   */\n  dup2\n    /* \"#utility.yul\":238:251   */\n  mload\n    /* \"#utility.yul\":229:251   */\n  swap1\n  pop\n    /* \"#utility.yul\":260:293   */\n  tag_14\n    /* \"#utility.yul\":287:292   */\n  dup2\n    /* \"#utility.yul\":260:293   */\n  tag_15\n  jump\t// in\ntag_14:\n    /* \"#utility.yul\":156:299   */\n  swap3\n  swap2\n  pop\n  pop\n  jump\t// out\n    /* \"#utility.yul\":305:812   */\ntag_3:\n    /* \"#utility.yul\":384:390   */\n  0x00\n    /* \"#utility.yul\":392:398   */\n  dup1\n    /* \"#utility.yul\":441:443   */\n  0x40\n    /* \"#utility.yul\":429:438   */\n  dup4\n    /* \"#utility.yul\":420:427   */\n  dup6\n    /* \"#utility.yul\":416:439   */\n  sub\n    /* \"#utility.yul\":412:444   */\n  slt\n    /* \"#utility.yul\":409:528   */\n  iszero\n  tag_17\n  jumpi\n    /* \"#utility.yul\":447:526   */\n  tag_18\n  tag_19\n  jump\t// in\ntag_18:\n    /* \"#utility.yul\":409:528   */\ntag_17:\n    /* \"#utility.yul\":567:568   */\n  0x00\n    /* \"#utility.yul\":592:656   */\n  tag_20\n    /* \"#utility.yul\":648:655   */\n  dup6\n    /* \"#utility.yul\":639:645   */\n  dup3\n    /* \"#utility.yul\":628:637   */\n  dup7\n    /* \"#utility.yul\":624:646   */\n  add\n    /* \"#utility.yul\":592:656   */\n  tag_12\n  jump\t// in\ntag_20:\n    /* \"#utility.yul\":582:656   */\n  swap3\n  pop\n    /* \"#utility.yul\":538:666   */\n  pop\n    /* \"#utility.yul\":705:707   */\n  0x20\n    /* \"#utility.yul\":731:795   */\n  tag_21\n    /* \"#utility.yul\":787:794   */\n  dup6\n    /* \"#utility.yul\":778:784   */\n  dup3\n    /* \"#utility.yul\":767:776   */\n  dup7\n    /* \"#utility.yul\":763:785   */\n  add\n    /* \"#utility.yul\":731:795   */\n  tag_8\n  jump\t// in\ntag_21:\n    /* \"#utility.yul\":721:795   */\n  swap2\n  pop\n    /* \"#utility.yul\":676:805   */\n  pop\n    /* \"#utility.yul\":305:812   */\n  swap3\n  pop\n  swap3\n  swap1\n  pop\n  jump\t// out\n    /* \"#utility.yul\":899:995   */\ntag_24:\n    /* \"#utility.yul\":936:943   */\n  0x00\n    /* \"#utility.yul\":965:989   */\n  tag_26\n    /* \"#utility.yul\":983:988   */\n  dup3\n    /* \"#utility.yul\":965:989   */\n  tag_27\n  jump\t// in\ntag_26:\n    /* \"#utility.yul\":954:989   */\n  swap1\n  pop\n    /* \"#utility.yul\":899:995   */\n  swap2\n  swap1\n  pop\n  jump\t// out\n    /* \"#utility.yul\":1001:1127   */\ntag_27:\n    /* \"#utility.yul\":1038:1045   */\n  0x00\n    /* \"#utility.yul\":1078:1120   */\n  0xffffffffffffffffffffffffffffffffffffffff\n    /* \"#utility.yul\":1071:1076   */\n  dup3\n    /* \"#utility.yul\":1067:1121   */\n  and\n    /* \"#utility.yul\":1056:1121   */\n  swap1\n  pop\n    /* \"#utility.yul\":1001:1127   */\n  swap2\n  swap1\n  pop\n  jump\t// out\n    /* \"#utility.yul\":1133:1210   */\ntag_29:\n    /* \"#utility.yul\":1170:1177   */\n  0x00\n    /* \"#utility.yul\":1199:1204   */\n  dup2\n    /* \"#utility.yul\":1188:1204   */\n  swap1\n  pop\n    /* \"#utility.yul\":1133:1210   */\n  swap2\n  swap1\n  pop\n  jump\t// out\n    /* \"#utility.yul\":1339:1456   */\ntag_19:\n    /* \"#utility.yul\":1448:1449   */\n  0x00\n    /* \"#utility.yul\":1445:1446   */\n  dup1\n    /* \"#utility.yul\":1438:1450   */\n  revert\n    /* \"#utility.yul\":1462:1584   */\ntag_11:\n    /* \"#utility.yul\":1535:1559   */\n  tag_35\n    /* \"#utility.yul\":1553:1558   */\n  dup2\n    /* \"#utility.yul\":1535:1559   */\n  tag_24\n  jump\t// in\ntag_35:\n    /* \"#utility.yul\":1528:1533   */\n  dup2\n    /* \"#utility.yul\":1525:1560   */\n  eq\n    /* \"#utility.yul\":1515:1578   */\n  tag_36\n  jumpi\n    /* \"#utility.yul\":1574:1575   */\n  0x00\n    /* \"#utility.yul\":1571:1572   */\n  dup1\n    /* \"#utility.yul\":1564:1576   */\n  revert\n    /* \"#utility.yul\":1515:1578   */\ntag_36:\n    /* \"#utility.yul\":1462:1584   */\n  pop\n  jump\t// out\n    /* \"#utility.yul\":1590:1712   */\ntag_15:\n    /* \"#utility.yul\":1663:1687   */\n  tag_38\n    /* \"#utility.yul\":1681:1686   */\n  dup2\n    /* \"#utility.yul\":1663:1687   */\n  tag_29\n  jump\t// in\ntag_38:\n    /* \"#utility.yul\":1656:1661   */\n  dup2\n    /* \"#utility.yul\":1653:1688   */\n  eq\n    /* \"#utility.yul\":1643:1706   */\n  tag_39\n  jumpi\n    /* \"#utility.yul\":1702:1703   */\n  0x00\n    /* \"#utility.yul\":1699:1700   */\n  dup1\n    /* \"#utility.yul\":1692:1704   */\n  revert\n    /* \"#utility.yul\":1643:1706   */\ntag_39:\n    /* \"#utility.yul\":1590:1712   */\n  pop\n  jump\t// out\n    /* \"contracts/campaign.sol\":74:2024  contract Campaign {\r... */\ntag_6:\n  dataSize(sub_0)\n  dup1\n  dataOffset(sub_0)\n  0x00\n  codecopy\n  0x00\n  return\nstop\n\nsub_0: assembly {\n        /* \"contracts/campaign.sol\":74:2024  contract Campaign {\r... */\n      mstore(0x40, 0x80)\n      jumpi(tag_1, lt(calldatasize, 0x04))\n      shr(0xe0, calldataload(0x00))\n      dup1\n      0x8a9cfd55\n      gt\n      tag_10\n      jumpi\n      dup1\n      0x8a9cfd55\n      eq\n      tag_6\n      jumpi\n      dup1\n      0x937e09b1\n      eq\n      tag_7\n      jumpi\n      dup1\n      0xd7bb99ba\n      eq\n      tag_8\n      jumpi\n      dup1\n      0xd7d1bbdb\n      eq\n      tag_9\n      jumpi\n      jump(tag_1)\n    tag_10:\n      dup1\n      0x03441006\n      eq\n      tag_2\n      jumpi\n      dup1\n      0x0a144391\n      eq\n      tag_3\n      jumpi\n      dup1\n      0x481c6a75\n      eq\n      tag_4\n      jumpi\n      dup1\n      0x81d12c58\n      eq\n      tag_5\n      jumpi\n    tag_1:\n      0x00\n      dup1\n      revert\n        /* \"contracts/campaign.sol\":1588:2019  function finalizeRequest(uint _index) public restricted {\r... */\n    tag_2:\n      callvalue\n      dup1\n      iszero\n      tag_11\n      jumpi\n      0x00\n      dup1\n      revert\n    tag_11:\n      pop\n      tag_12\n      0x04\n      dup1\n      calldatasize\n      sub\n      dup2\n      add\n      swap1\n      tag_13\n      swap2\n      swap1\n      tag_14\n      jump\t// in\n    tag_13:\n      tag_15\n      jump\t// in\n    tag_12:\n      stop\n        /* \"contracts/campaign.sol\":373:414  mapping(address => bool) public approvers */\n    tag_3:\n      callvalue\n      dup1\n      iszero\n      tag_16\n      jumpi\n      0x00\n      dup1\n      revert\n    tag_16:\n      pop\n      tag_17\n      0x04\n      dup1\n      calldatasize\n      sub\n      dup2\n      add\n      swap1\n      tag_18\n      swap2\n      swap1\n      tag_19\n      jump\t// in\n    tag_18:\n      tag_20\n      jump\t// in\n    tag_17:\n      mload(0x40)\n      tag_21\n      swap2\n      swap1\n      tag_22\n      jump\t// in\n    tag_21:\n      mload(0x40)\n      dup1\n      swap2\n      sub\n      swap1\n      return\n        /* \"contracts/campaign.sol\":306:328  address public manager */\n    tag_4:\n      callvalue\n      dup1\n      iszero\n      tag_23\n      jumpi\n      0x00\n      dup1\n      revert\n    tag_23:\n      pop\n      tag_24\n      tag_25\n      jump\t// in\n    tag_24:\n      mload(0x40)\n      tag_26\n      swap2\n      swap1\n      tag_27\n      jump\t// in\n    tag_26:\n      mload(0x40)\n      dup1\n      swap2\n      sub\n      swap1\n      return\n        /* \"contracts/campaign.sol\":421:462  mapping (uint => Request) public requests */\n    tag_5:\n      callvalue\n      dup1\n      iszero\n      tag_28\n      jumpi\n      0x00\n      dup1\n      revert\n    tag_28:\n      pop\n      tag_29\n      0x04\n      dup1\n      calldatasize\n      sub\n      dup2\n      add\n      swap1\n      tag_30\n      swap2\n      swap1\n      tag_14\n      jump\t// in\n    tag_30:\n      tag_31\n      jump\t// in\n    tag_29:\n      mload(0x40)\n      tag_32\n      swap6\n      swap5\n      swap4\n      swap3\n      swap2\n      swap1\n      tag_33\n      jump\t// in\n    tag_32:\n      mload(0x40)\n      dup1\n      swap2\n      sub\n      swap1\n      return\n        /* \"contracts/campaign.sol\":924:1291  function createRequest(string memory _description, uint _value, address _recipient)\r... */\n    tag_6:\n      callvalue\n      dup1\n      iszero\n      tag_34\n      jumpi\n      0x00\n      dup1\n      revert\n    tag_34:\n      pop\n      tag_35\n      0x04\n      dup1\n      calldatasize\n      sub\n      dup2\n      add\n      swap1\n      tag_36\n      swap2\n      swap1\n      tag_37\n      jump\t// in\n    tag_36:\n      tag_38\n      jump\t// in\n    tag_35:\n      stop\n        /* \"contracts/campaign.sol\":335:366  uint public minimumContribution */\n    tag_7:\n      callvalue\n      dup1\n      iszero\n      tag_39\n      jumpi\n      0x00\n      dup1\n      revert\n    tag_39:\n      pop\n      tag_40\n      tag_41\n      jump\t// in\n    tag_40:\n      mload(0x40)\n      tag_42\n      swap2\n      swap1\n      tag_43\n      jump\t// in\n    tag_42:\n      mload(0x40)\n      dup1\n      swap2\n      sub\n      swap1\n      return\n        /* \"contracts/campaign.sol\":756:916  function contribute() public payable {\r... */\n    tag_8:\n      tag_44\n      tag_45\n      jump\t// in\n    tag_44:\n      stop\n        /* \"contracts/campaign.sol\":1299:1580  function approveRequest(uint _index) public {\r... */\n    tag_9:\n      callvalue\n      dup1\n      iszero\n      tag_46\n      jumpi\n      0x00\n      dup1\n      revert\n    tag_46:\n      pop\n      tag_47\n      0x04\n      dup1\n      calldatasize\n      sub\n      dup2\n      add\n      swap1\n      tag_48\n      swap2\n      swap1\n      tag_14\n      jump\t// in\n    tag_48:\n      tag_49\n      jump\t// in\n    tag_47:\n      stop\n        /* \"contracts/campaign.sol\":1588:2019  function finalizeRequest(uint _index) public restricted {\r... */\n    tag_15:\n        /* \"contracts/campaign.sol\":589:596  manager */\n      0x00\n      dup1\n      sload\n      swap1\n      0x0100\n      exp\n      swap1\n      div\n      0xffffffffffffffffffffffffffffffffffffffff\n      and\n        /* \"contracts/campaign.sol\":575:596  msg.sender == manager */\n      0xffffffffffffffffffffffffffffffffffffffff\n      and\n        /* \"contracts/campaign.sol\":575:585  msg.sender */\n      caller\n        /* \"contracts/campaign.sol\":575:596  msg.sender == manager */\n      0xffffffffffffffffffffffffffffffffffffffff\n      and\n      eq\n        /* \"contracts/campaign.sol\":567:597  require(msg.sender == manager) */\n      tag_51\n      jumpi\n      0x00\n      dup1\n      revert\n    tag_51:\n        /* \"contracts/campaign.sol\":1655:1679  Request storage _request */\n      0x00\n        /* \"contracts/campaign.sol\":1682:1690  requests */\n      0x03\n        /* \"contracts/campaign.sol\":1682:1698  requests[_index] */\n      0x00\n        /* \"contracts/campaign.sol\":1691:1697  _index */\n      dup4\n        /* \"contracts/campaign.sol\":1682:1698  requests[_index] */\n      dup2\n      mstore\n      0x20\n      add\n      swap1\n      dup2\n      mstore\n      0x20\n      add\n      0x00\n      keccak256\n        /* \"contracts/campaign.sol\":1655:1698  Request storage _request = requests[_index] */\n      swap1\n      pop\n        /* \"contracts/campaign.sol\":1758:1759  2 */\n      0x02\n        /* \"contracts/campaign.sol\":1743:1755  numApprovers */\n      sload(0x05)\n        /* \"contracts/campaign.sol\":1743:1759  numApprovers / 2 */\n      tag_53\n      swap2\n      swap1\n      tag_54\n      jump\t// in\n    tag_53:\n        /* \"contracts/campaign.sol\":1717:1725  _request */\n      dup2\n        /* \"contracts/campaign.sol\":1717:1739  _request.approvalCount */\n      0x03\n      add\n      sload\n        /* \"contracts/campaign.sol\":1717:1760  _request.approvalCount > (numApprovers / 2) */\n      gt\n        /* \"contracts/campaign.sol\":1709:1761  require(_request.approvalCount > (numApprovers / 2)) */\n      tag_55\n      jumpi\n      0x00\n      dup1\n      revert\n    tag_55:\n        /* \"contracts/campaign.sol\":1781:1789  _request */\n      dup1\n        /* \"contracts/campaign.sol\":1781:1798  _request.complete */\n      0x02\n      add\n      0x14\n      swap1\n      sload\n      swap1\n      0x0100\n      exp\n      swap1\n      div\n      0xff\n      and\n        /* \"contracts/campaign.sol\":1780:1798  !_request.complete */\n      iszero\n        /* \"contracts/campaign.sol\":1772:1799  require(!_request.complete) */\n      tag_56\n      jumpi\n      0x00\n      dup1\n      revert\n    tag_56:\n        /* \"contracts/campaign.sol\":1810:1828  address _recipient */\n      0x00\n        /* \"contracts/campaign.sol\":1839:1847  _request */\n      dup2\n        /* \"contracts/campaign.sol\":1839:1857  _request.recipient */\n      0x02\n      add\n      0x00\n      swap1\n      sload\n      swap1\n      0x0100\n      exp\n      swap1\n      div\n      0xffffffffffffffffffffffffffffffffffffffff\n      and\n        /* \"contracts/campaign.sol\":1810:1858  address _recipient = payable(_request.recipient) */\n      swap1\n      pop\n        /* \"contracts/campaign.sol\":1889:1893  true */\n      0x01\n        /* \"contracts/campaign.sol\":1869:1877  _request */\n      dup3\n        /* \"contracts/campaign.sol\":1869:1886  _request.complete */\n      0x02\n      add\n      0x14\n        /* \"contracts/campaign.sol\":1869:1893  _request.complete = true */\n      0x0100\n      exp\n      dup2\n      sload\n      dup2\n      0xff\n      mul\n      not\n      and\n      swap1\n      dup4\n      iszero\n      iszero\n      mul\n      or\n      swap1\n      sstore\n      pop\n        /* \"contracts/campaign.sol\":1905:1914  bool sent */\n      0x00\n        /* \"contracts/campaign.sol\":1919:1929  _recipient */\n      dup2\n        /* \"contracts/campaign.sol\":1919:1934  _recipient.call */\n      0xffffffffffffffffffffffffffffffffffffffff\n      and\n        /* \"contracts/campaign.sol\":1942:1963  address(this).balance */\n      selfbalance\n        /* \"contracts/campaign.sol\":1919:1969  _recipient.call{value: address(this).balance} (\"\") */\n      mload(0x40)\n      tag_57\n      swap1\n      tag_58\n      jump\t// in\n    tag_57:\n      0x00\n      mload(0x40)\n      dup1\n      dup4\n      sub\n      dup2\n      dup6\n      dup8\n      gas\n      call\n      swap3\n      pop\n      pop\n      pop\n      returndatasize\n      dup1\n      0x00\n      dup2\n      eq\n      tag_61\n      jumpi\n      mload(0x40)\n      swap2\n      pop\n      and(add(returndatasize, 0x3f), not(0x1f))\n      dup3\n      add\n      0x40\n      mstore\n      returndatasize\n      dup3\n      mstore\n      returndatasize\n      0x00\n      0x20\n      dup5\n      add\n      returndatacopy\n      jump(tag_60)\n    tag_61:\n      0x60\n      swap2\n      pop\n    tag_60:\n      pop\n        /* \"contracts/campaign.sol\":1904:1969  (bool sent,) = _recipient.call{value: address(this).balance} (\"\") */\n      pop\n      swap1\n      pop\n        /* \"contracts/campaign.sol\":1988:1992  sent */\n      dup1\n        /* \"contracts/campaign.sol\":1980:2011  require(sent, \"Ether not sent\") */\n      tag_62\n      jumpi\n      mload(0x40)\n      0x08c379a000000000000000000000000000000000000000000000000000000000\n      dup2\n      mstore\n      0x04\n      add\n      tag_63\n      swap1\n      tag_64\n      jump\t// in\n    tag_63:\n      mload(0x40)\n      dup1\n      swap2\n      sub\n      swap1\n      revert\n    tag_62:\n        /* \"contracts/campaign.sol\":1644:2019  {\r... */\n      pop\n      pop\n      pop\n        /* \"contracts/campaign.sol\":1588:2019  function finalizeRequest(uint _index) public restricted {\r... */\n      pop\n      jump\t// out\n        /* \"contracts/campaign.sol\":373:414  mapping(address => bool) public approvers */\n    tag_20:\n      mstore(0x20, 0x02)\n      dup1\n      0x00\n      mstore\n      keccak256(0x00, 0x40)\n      0x00\n      swap2\n      pop\n      sload\n      swap1\n      0x0100\n      exp\n      swap1\n      div\n      0xff\n      and\n      dup2\n      jump\t// out\n        /* \"contracts/campaign.sol\":306:328  address public manager */\n    tag_25:\n      0x00\n      dup1\n      sload\n      swap1\n      0x0100\n      exp\n      swap1\n      div\n      0xffffffffffffffffffffffffffffffffffffffff\n      and\n      dup2\n      jump\t// out\n        /* \"contracts/campaign.sol\":421:462  mapping (uint => Request) public requests */\n    tag_31:\n      mstore(0x20, 0x03)\n      dup1\n      0x00\n      mstore\n      keccak256(0x00, 0x40)\n      0x00\n      swap2\n      pop\n      swap1\n      pop\n      dup1\n      0x00\n      add\n      dup1\n      sload\n      tag_65\n      swap1\n      tag_66\n      jump\t// in\n    tag_65:\n      dup1\n      0x1f\n      add\n      0x20\n      dup1\n      swap2\n      div\n      mul\n      0x20\n      add\n      mload(0x40)\n      swap1\n      dup2\n      add\n      0x40\n      mstore\n      dup1\n      swap3\n      swap2\n      swap1\n      dup2\n      dup2\n      mstore\n      0x20\n      add\n      dup3\n      dup1\n      sload\n      tag_67\n      swap1\n      tag_66\n      jump\t// in\n    tag_67:\n      dup1\n      iszero\n      tag_68\n      jumpi\n      dup1\n      0x1f\n      lt\n      tag_69\n      jumpi\n      0x0100\n      dup1\n      dup4\n      sload\n      div\n      mul\n      dup4\n      mstore\n      swap2\n      0x20\n      add\n      swap2\n      jump(tag_68)\n    tag_69:\n      dup3\n      add\n      swap2\n      swap1\n      0x00\n      mstore\n      keccak256(0x00, 0x20)\n      swap1\n    tag_70:\n      dup2\n      sload\n      dup2\n      mstore\n      swap1\n      0x01\n      add\n      swap1\n      0x20\n      add\n      dup1\n      dup4\n      gt\n      tag_70\n      jumpi\n      dup3\n      swap1\n      sub\n      0x1f\n      and\n      dup3\n      add\n      swap2\n    tag_68:\n      pop\n      pop\n      pop\n      pop\n      pop\n      swap1\n      dup1\n      0x01\n      add\n      sload\n      swap1\n      dup1\n      0x02\n      add\n      0x00\n      swap1\n      sload\n      swap1\n      0x0100\n      exp\n      swap1\n      div\n      0xffffffffffffffffffffffffffffffffffffffff\n      and\n      swap1\n      dup1\n      0x02\n      add\n      0x14\n      swap1\n      sload\n      swap1\n      0x0100\n      exp\n      swap1\n      div\n      0xff\n      and\n      swap1\n      dup1\n      0x03\n      add\n      sload\n      swap1\n      pop\n      dup6\n      jump\t// out\n        /* \"contracts/campaign.sol\":924:1291  function createRequest(string memory _description, uint _value, address _recipient)\r... */\n    tag_38:\n        /* \"contracts/campaign.sol\":589:596  manager */\n      0x00\n      dup1\n      sload\n      swap1\n      0x0100\n      exp\n      swap1\n      div\n      0xffffffffffffffffffffffffffffffffffffffff\n      and\n        /* \"contracts/campaign.sol\":575:596  msg.sender == manager */\n      0xffffffffffffffffffffffffffffffffffffffff\n      and\n        /* \"contracts/campaign.sol\":575:585  msg.sender */\n      caller\n        /* \"contracts/campaign.sol\":575:596  msg.sender == manager */\n      0xffffffffffffffffffffffffffffffffffffffff\n      and\n      eq\n        /* \"contracts/campaign.sol\":567:597  require(msg.sender == manager) */\n      tag_72\n      jumpi\n      0x00\n      dup1\n      revert\n    tag_72:\n        /* \"contracts/campaign.sol\":1050:1068  Request storage _r */\n      0x00\n        /* \"contracts/campaign.sol\":1071:1079  requests */\n      0x03\n        /* \"contracts/campaign.sol\":1071:1094  requests[numRequests++] */\n      0x00\n        /* \"contracts/campaign.sol\":1080:1091  numRequests */\n      0x04\n      0x00\n        /* \"contracts/campaign.sol\":1080:1093  numRequests++ */\n      dup2\n      sload\n      dup1\n      swap3\n      swap2\n      swap1\n      tag_74\n      swap1\n      tag_75\n      jump\t// in\n    tag_74:\n      swap2\n      swap1\n      pop\n      sstore\n        /* \"contracts/campaign.sol\":1071:1094  requests[numRequests++] */\n      dup2\n      mstore\n      0x20\n      add\n      swap1\n      dup2\n      mstore\n      0x20\n      add\n      0x00\n      keccak256\n        /* \"contracts/campaign.sol\":1050:1094  Request storage _r = requests[numRequests++] */\n      swap1\n      pop\n        /* \"contracts/campaign.sol\":1126:1138  _description */\n      dup4\n        /* \"contracts/campaign.sol\":1109:1111  _r */\n      dup2\n        /* \"contracts/campaign.sol\":1109:1123  _r.description */\n      0x00\n      add\n        /* \"contracts/campaign.sol\":1109:1138  _r.description = _description */\n      swap1\n      dup1\n      mload\n      swap1\n      0x20\n      add\n      swap1\n      tag_76\n      swap3\n      swap2\n      swap1\n      tag_77\n      jump\t// in\n    tag_76:\n      pop\n        /* \"contracts/campaign.sol\":1164:1170  _value */\n      dup3\n        /* \"contracts/campaign.sol\":1153:1155  _r */\n      dup2\n        /* \"contracts/campaign.sol\":1153:1161  _r.value */\n      0x01\n      add\n        /* \"contracts/campaign.sol\":1153:1170  _r.value = _value */\n      dup2\n      swap1\n      sstore\n      pop\n        /* \"contracts/campaign.sol\":1200:1210  _recipient */\n      dup2\n        /* \"contracts/campaign.sol\":1185:1187  _r */\n      dup2\n        /* \"contracts/campaign.sol\":1185:1197  _r.recipient */\n      0x02\n      add\n      0x00\n        /* \"contracts/campaign.sol\":1185:1210  _r.recipient = _recipient */\n      0x0100\n      exp\n      dup2\n      sload\n      dup2\n      0xffffffffffffffffffffffffffffffffffffffff\n      mul\n      not\n      and\n      swap1\n      dup4\n      0xffffffffffffffffffffffffffffffffffffffff\n      and\n      mul\n      or\n      swap1\n      sstore\n      pop\n        /* \"contracts/campaign.sol\":1239:1244  false */\n      0x00\n        /* \"contracts/campaign.sol\":1225:1227  _r */\n      dup2\n        /* \"contracts/campaign.sol\":1225:1236  _r.complete */\n      0x02\n      add\n      0x14\n        /* \"contracts/campaign.sol\":1225:1244  _r.complete = false */\n      0x0100\n      exp\n      dup2\n      sload\n      dup2\n      0xff\n      mul\n      not\n      and\n      swap1\n      dup4\n      iszero\n      iszero\n      mul\n      or\n      swap1\n      sstore\n      pop\n        /* \"contracts/campaign.sol\":1278:1279  0 */\n      0x00\n        /* \"contracts/campaign.sol\":1259:1261  _r */\n      dup2\n        /* \"contracts/campaign.sol\":1259:1275  _r.approvalCount */\n      0x03\n      add\n        /* \"contracts/campaign.sol\":1259:1279  _r.approvalCount = 0 */\n      dup2\n      swap1\n      sstore\n      pop\n        /* \"contracts/campaign.sol\":1035:1291  {\r... */\n      pop\n        /* \"contracts/campaign.sol\":924:1291  function createRequest(string memory _description, uint _value, address _recipient)\r... */\n      pop\n      pop\n      pop\n      jump\t// out\n        /* \"contracts/campaign.sol\":335:366  uint public minimumContribution */\n    tag_41:\n      sload(0x01)\n      dup2\n      jump\t// out\n        /* \"contracts/campaign.sol\":756:916  function contribute() public payable {\r... */\n    tag_45:\n        /* \"contracts/campaign.sol\":824:843  minimumContribution */\n      sload(0x01)\n        /* \"contracts/campaign.sol\":812:821  msg.value */\n      callvalue\n        /* \"contracts/campaign.sol\":812:843  msg.value > minimumContribution */\n      gt\n        /* \"contracts/campaign.sol\":804:844  require(msg.value > minimumContribution) */\n      tag_79\n      jumpi\n      0x00\n      dup1\n      revert\n    tag_79:\n        /* \"contracts/campaign.sol\":879:883  true */\n      0x01\n        /* \"contracts/campaign.sol\":855:864  approvers */\n      0x02\n        /* \"contracts/campaign.sol\":855:876  approvers[msg.sender] */\n      0x00\n        /* \"contracts/campaign.sol\":865:875  msg.sender */\n      caller\n        /* \"contracts/campaign.sol\":855:876  approvers[msg.sender] */\n      0xffffffffffffffffffffffffffffffffffffffff\n      and\n      0xffffffffffffffffffffffffffffffffffffffff\n      and\n      dup2\n      mstore\n      0x20\n      add\n      swap1\n      dup2\n      mstore\n      0x20\n      add\n      0x00\n      keccak256\n      0x00\n        /* \"contracts/campaign.sol\":855:883  approvers[msg.sender] = true */\n      0x0100\n      exp\n      dup2\n      sload\n      dup2\n      0xff\n      mul\n      not\n      and\n      swap1\n      dup4\n      iszero\n      iszero\n      mul\n      or\n      swap1\n      sstore\n      pop\n        /* \"contracts/campaign.sol\":894:906  numApprovers */\n      0x05\n      0x00\n        /* \"contracts/campaign.sol\":894:908  numApprovers++ */\n      dup2\n      sload\n      dup1\n      swap3\n      swap2\n      swap1\n      tag_80\n      swap1\n      tag_75\n      jump\t// in\n    tag_80:\n      swap2\n      swap1\n      pop\n      sstore\n      pop\n        /* \"contracts/campaign.sol\":756:916  function contribute() public payable {\r... */\n      jump\t// out\n        /* \"contracts/campaign.sol\":1299:1580  function approveRequest(uint _index) public {\r... */\n    tag_49:\n        /* \"contracts/campaign.sol\":1354:1378  Request storage _request */\n      0x00\n        /* \"contracts/campaign.sol\":1381:1389  requests */\n      0x03\n        /* \"contracts/campaign.sol\":1381:1397  requests[_index] */\n      0x00\n        /* \"contracts/campaign.sol\":1390:1396  _index */\n      dup4\n        /* \"contracts/campaign.sol\":1381:1397  requests[_index] */\n      dup2\n      mstore\n      0x20\n      add\n      swap1\n      dup2\n      mstore\n      0x20\n      add\n      0x00\n      keccak256\n        /* \"contracts/campaign.sol\":1354:1397  Request storage _request = requests[_index] */\n      swap1\n      pop\n        /* \"contracts/campaign.sol\":1416:1425  approvers */\n      0x02\n        /* \"contracts/campaign.sol\":1416:1437  approvers[msg.sender] */\n      0x00\n        /* \"contracts/campaign.sol\":1426:1436  msg.sender */\n      caller\n        /* \"contracts/campaign.sol\":1416:1437  approvers[msg.sender] */\n      0xffffffffffffffffffffffffffffffffffffffff\n      and\n      0xffffffffffffffffffffffffffffffffffffffff\n      and\n      dup2\n      mstore\n      0x20\n      add\n      swap1\n      dup2\n      mstore\n      0x20\n      add\n      0x00\n      keccak256\n      0x00\n      swap1\n      sload\n      swap1\n      0x0100\n      exp\n      swap1\n      div\n      0xff\n      and\n        /* \"contracts/campaign.sol\":1408:1438  require(approvers[msg.sender]) */\n      tag_82\n      jumpi\n      0x00\n      dup1\n      revert\n    tag_82:\n        /* \"contracts/campaign.sol\":1458:1466  _request */\n      dup1\n        /* \"contracts/campaign.sol\":1458:1476  _request.approvals */\n      0x04\n      add\n        /* \"contracts/campaign.sol\":1458:1488  _request.approvals[msg.sender] */\n      0x00\n        /* \"contracts/campaign.sol\":1477:1487  msg.sender */\n      caller\n        /* \"contracts/campaign.sol\":1458:1488  _request.approvals[msg.sender] */\n      0xffffffffffffffffffffffffffffffffffffffff\n      and\n      0xffffffffffffffffffffffffffffffffffffffff\n      and\n      dup2\n      mstore\n      0x20\n      add\n      swap1\n      dup2\n      mstore\n      0x20\n      add\n      0x00\n      keccak256\n      0x00\n      swap1\n      sload\n      swap1\n      0x0100\n      exp\n      swap1\n      div\n      0xff\n      and\n        /* \"contracts/campaign.sol\":1457:1488  !_request.approvals[msg.sender] */\n      iszero\n        /* \"contracts/campaign.sol\":1449:1489  require(!_request.approvals[msg.sender]) */\n      tag_83\n      jumpi\n      0x00\n      dup1\n      revert\n    tag_83:\n        /* \"contracts/campaign.sol\":1533:1537  true */\n      0x01\n        /* \"contracts/campaign.sol\":1500:1508  _request */\n      dup2\n        /* \"contracts/campaign.sol\":1500:1518  _request.approvals */\n      0x04\n      add\n        /* \"contracts/campaign.sol\":1500:1530  _request.approvals[msg.sender] */\n      0x00\n        /* \"contracts/campaign.sol\":1519:1529  msg.sender */\n      caller\n        /* \"contracts/campaign.sol\":1500:1530  _request.approvals[msg.sender] */\n      0xffffffffffffffffffffffffffffffffffffffff\n      and\n      0xffffffffffffffffffffffffffffffffffffffff\n      and\n      dup2\n      mstore\n      0x20\n      add\n      swap1\n      dup2\n      mstore\n      0x20\n      add\n      0x00\n      keccak256\n      0x00\n        /* \"contracts/campaign.sol\":1500:1537  _request.approvals[msg.sender] = true */\n      0x0100\n      exp\n      dup2\n      sload\n      dup2\n      0xff\n      mul\n      not\n      and\n      swap1\n      dup4\n      iszero\n      iszero\n      mul\n      or\n      swap1\n      sstore\n      pop\n        /* \"contracts/campaign.sol\":1548:1556  _request */\n      dup1\n        /* \"contracts/campaign.sol\":1548:1570  _request.approvalCount */\n      0x03\n      add\n      0x00\n        /* \"contracts/campaign.sol\":1548:1572  _request.approvalCount++ */\n      dup2\n      sload\n      dup1\n      swap3\n      swap2\n      swap1\n      tag_84\n      swap1\n      tag_75\n      jump\t// in\n    tag_84:\n      swap2\n      swap1\n      pop\n      sstore\n      pop\n        /* \"contracts/campaign.sol\":1343:1580  {\r... */\n      pop\n        /* \"contracts/campaign.sol\":1299:1580  function approveRequest(uint _index) public {\r... */\n      pop\n      jump\t// out\n    tag_77:\n      dup3\n      dup1\n      sload\n      tag_85\n      swap1\n      tag_66\n      jump\t// in\n    tag_85:\n      swap1\n      0x00\n      mstore\n      keccak256(0x00, 0x20)\n      swap1\n      0x1f\n      add\n      0x20\n      swap1\n      div\n      dup2\n      add\n      swap3\n      dup3\n      tag_87\n      jumpi\n      0x00\n      dup6\n      sstore\n      jump(tag_86)\n    tag_87:\n      dup3\n      0x1f\n      lt\n      tag_88\n      jumpi\n      dup1\n      mload\n      not(0xff)\n      and\n      dup4\n      dup1\n      add\n      or\n      dup6\n      sstore\n      jump(tag_86)\n    tag_88:\n      dup3\n      dup1\n      add\n      0x01\n      add\n      dup6\n      sstore\n      dup3\n      iszero\n      tag_86\n      jumpi\n      swap2\n      dup3\n      add\n    tag_89:\n      dup3\n      dup2\n      gt\n      iszero\n      tag_90\n      jumpi\n      dup3\n      mload\n      dup3\n      sstore\n      swap2\n      0x20\n      add\n      swap2\n      swap1\n      0x01\n      add\n      swap1\n      jump(tag_89)\n    tag_90:\n    tag_86:\n      pop\n      swap1\n      pop\n      tag_91\n      swap2\n      swap1\n      tag_92\n      jump\t// in\n    tag_91:\n      pop\n      swap1\n      jump\t// out\n    tag_92:\n    tag_93:\n      dup1\n      dup3\n      gt\n      iszero\n      tag_94\n      jumpi\n      0x00\n      dup2\n      0x00\n      swap1\n      sstore\n      pop\n      0x01\n      add\n      jump(tag_93)\n    tag_94:\n      pop\n      swap1\n      jump\t// out\n        /* \"#utility.yul\":7:419   */\n    tag_96:\n        /* \"#utility.yul\":85:90   */\n      0x00\n        /* \"#utility.yul\":110:176   */\n      tag_98\n        /* \"#utility.yul\":126:175   */\n      tag_99\n        /* \"#utility.yul\":168:174   */\n      dup5\n        /* \"#utility.yul\":126:175   */\n      tag_100\n      jump\t// in\n    tag_99:\n        /* \"#utility.yul\":110:176   */\n      tag_101\n      jump\t// in\n    tag_98:\n        /* \"#utility.yul\":101:176   */\n      swap1\n      pop\n        /* \"#utility.yul\":199:205   */\n      dup3\n        /* \"#utility.yul\":192:197   */\n      dup2\n        /* \"#utility.yul\":185:206   */\n      mstore\n        /* \"#utility.yul\":237:241   */\n      0x20\n        /* \"#utility.yul\":230:235   */\n      dup2\n        /* \"#utility.yul\":226:242   */\n      add\n        /* \"#utility.yul\":275:278   */\n      dup5\n        /* \"#utility.yul\":266:272   */\n      dup5\n        /* \"#utility.yul\":261:264   */\n      dup5\n        /* \"#utility.yul\":257:273   */\n      add\n        /* \"#utility.yul\":254:279   */\n      gt\n        /* \"#utility.yul\":251:363   */\n      iszero\n      tag_102\n      jumpi\n        /* \"#utility.yul\":282:361   */\n      tag_103\n      tag_104\n      jump\t// in\n    tag_103:\n        /* \"#utility.yul\":251:363   */\n    tag_102:\n        /* \"#utility.yul\":372:413   */\n      tag_105\n        /* \"#utility.yul\":406:412   */\n      dup5\n        /* \"#utility.yul\":401:404   */\n      dup3\n        /* \"#utility.yul\":396:399   */\n      dup6\n        /* \"#utility.yul\":372:413   */\n      tag_106\n      jump\t// in\n    tag_105:\n        /* \"#utility.yul\":91:419   */\n      pop\n        /* \"#utility.yul\":7:419   */\n      swap4\n      swap3\n      pop\n      pop\n      pop\n      jump\t// out\n        /* \"#utility.yul\":425:564   */\n    tag_107:\n        /* \"#utility.yul\":471:476   */\n      0x00\n        /* \"#utility.yul\":509:515   */\n      dup2\n        /* \"#utility.yul\":496:516   */\n      calldataload\n        /* \"#utility.yul\":487:516   */\n      swap1\n      pop\n        /* \"#utility.yul\":525:558   */\n      tag_109\n        /* \"#utility.yul\":552:557   */\n      dup2\n        /* \"#utility.yul\":525:558   */\n      tag_110\n      jump\t// in\n    tag_109:\n        /* \"#utility.yul\":425:564   */\n      swap3\n      swap2\n      pop\n      pop\n      jump\t// out\n        /* \"#utility.yul\":584:924   */\n    tag_111:\n        /* \"#utility.yul\":640:645   */\n      0x00\n        /* \"#utility.yul\":689:692   */\n      dup3\n        /* \"#utility.yul\":682:686   */\n      0x1f\n        /* \"#utility.yul\":674:680   */\n      dup4\n        /* \"#utility.yul\":670:687   */\n      add\n        /* \"#utility.yul\":666:693   */\n      slt\n        /* \"#utility.yul\":656:778   */\n      tag_113\n      jumpi\n        /* \"#utility.yul\":697:776   */\n      tag_114\n      tag_115\n      jump\t// in\n    tag_114:\n        /* \"#utility.yul\":656:778   */\n    tag_113:\n        /* \"#utility.yul\":814:820   */\n      dup2\n        /* \"#utility.yul\":801:821   */\n      calldataload\n        /* \"#utility.yul\":839:918   */\n      tag_116\n        /* \"#utility.yul\":914:917   */\n      dup5\n        /* \"#utility.yul\":906:912   */\n      dup3\n        /* \"#utility.yul\":899:903   */\n      0x20\n        /* \"#utility.yul\":891:897   */\n      dup7\n        /* \"#utility.yul\":887:904   */\n      add\n        /* \"#utility.yul\":839:918   */\n      tag_96\n      jump\t// in\n    tag_116:\n        /* \"#utility.yul\":830:918   */\n      swap2\n      pop\n        /* \"#utility.yul\":646:924   */\n      pop\n        /* \"#utility.yul\":584:924   */\n      swap3\n      swap2\n      pop\n      pop\n      jump\t// out\n        /* \"#utility.yul\":930:1069   */\n    tag_117:\n        /* \"#utility.yul\":976:981   */\n      0x00\n        /* \"#utility.yul\":1014:1020   */\n      dup2\n        /* \"#utility.yul\":1001:1021   */\n      calldataload\n        /* \"#utility.yul\":992:1021   */\n      swap1\n      pop\n        /* \"#utility.yul\":1030:1063   */\n      tag_119\n        /* \"#utility.yul\":1057:1062   */\n      dup2\n        /* \"#utility.yul\":1030:1063   */\n      tag_120\n      jump\t// in\n    tag_119:\n        /* \"#utility.yul\":930:1069   */\n      swap3\n      swap2\n      pop\n      pop\n      jump\t// out\n        /* \"#utility.yul\":1075:1404   */\n    tag_19:\n        /* \"#utility.yul\":1134:1140   */\n      0x00\n        /* \"#utility.yul\":1183:1185   */\n      0x20\n        /* \"#utility.yul\":1171:1180   */\n      dup3\n        /* \"#utility.yul\":1162:1169   */\n      dup5\n        /* \"#utility.yul\":1158:1181   */\n      sub\n        /* \"#utility.yul\":1154:1186   */\n      slt\n        /* \"#utility.yul\":1151:1270   */\n      iszero\n      tag_122\n      jumpi\n        /* \"#utility.yul\":1189:1268   */\n      tag_123\n      tag_124\n      jump\t// in\n    tag_123:\n        /* \"#utility.yul\":1151:1270   */\n    tag_122:\n        /* \"#utility.yul\":1309:1310   */\n      0x00\n        /* \"#utility.yul\":1334:1387   */\n      tag_125\n        /* \"#utility.yul\":1379:1386   */\n      dup5\n        /* \"#utility.yul\":1370:1376   */\n      dup3\n        /* \"#utility.yul\":1359:1368   */\n      dup6\n        /* \"#utility.yul\":1355:1377   */\n      add\n        /* \"#utility.yul\":1334:1387   */\n      tag_107\n      jump\t// in\n    tag_125:\n        /* \"#utility.yul\":1324:1387   */\n      swap2\n      pop\n        /* \"#utility.yul\":1280:1397   */\n      pop\n        /* \"#utility.yul\":1075:1404   */\n      swap3\n      swap2\n      pop\n      pop\n      jump\t// out\n        /* \"#utility.yul\":1410:2209   */\n    tag_37:\n        /* \"#utility.yul\":1497:1503   */\n      0x00\n        /* \"#utility.yul\":1505:1511   */\n      dup1\n        /* \"#utility.yul\":1513:1519   */\n      0x00\n        /* \"#utility.yul\":1562:1564   */\n      0x60\n        /* \"#utility.yul\":1550:1559   */\n      dup5\n        /* \"#utility.yul\":1541:1548   */\n      dup7\n        /* \"#utility.yul\":1537:1560   */\n      sub\n        /* \"#utility.yul\":1533:1565   */\n      slt\n        /* \"#utility.yul\":1530:1649   */\n      iszero\n      tag_127\n      jumpi\n        /* \"#utility.yul\":1568:1647   */\n      tag_128\n      tag_124\n      jump\t// in\n    tag_128:\n        /* \"#utility.yul\":1530:1649   */\n    tag_127:\n        /* \"#utility.yul\":1716:1717   */\n      0x00\n        /* \"#utility.yul\":1705:1714   */\n      dup5\n        /* \"#utility.yul\":1701:1718   */\n      add\n        /* \"#utility.yul\":1688:1719   */\n      calldataload\n        /* \"#utility.yul\":1746:1764   */\n      0xffffffffffffffff\n        /* \"#utility.yul\":1738:1744   */\n      dup2\n        /* \"#utility.yul\":1735:1765   */\n      gt\n        /* \"#utility.yul\":1732:1849   */\n      iszero\n      tag_129\n      jumpi\n        /* \"#utility.yul\":1768:1847   */\n      tag_130\n      tag_131\n      jump\t// in\n    tag_130:\n        /* \"#utility.yul\":1732:1849   */\n    tag_129:\n        /* \"#utility.yul\":1873:1936   */\n      tag_132\n        /* \"#utility.yul\":1928:1935   */\n      dup7\n        /* \"#utility.yul\":1919:1925   */\n      dup3\n        /* \"#utility.yul\":1908:1917   */\n      dup8\n        /* \"#utility.yul\":1904:1926   */\n      add\n        /* \"#utility.yul\":1873:1936   */\n      tag_111\n      jump\t// in\n    tag_132:\n        /* \"#utility.yul\":1863:1936   */\n      swap4\n      pop\n        /* \"#utility.yul\":1659:1946   */\n      pop\n        /* \"#utility.yul\":1985:1987   */\n      0x20\n        /* \"#utility.yul\":2011:2064   */\n      tag_133\n        /* \"#utility.yul\":2056:2063   */\n      dup7\n        /* \"#utility.yul\":2047:2053   */\n      dup3\n        /* \"#utility.yul\":2036:2045   */\n      dup8\n        /* \"#utility.yul\":2032:2054   */\n      add\n        /* \"#utility.yul\":2011:2064   */\n      tag_117\n      jump\t// in\n    tag_133:\n        /* \"#utility.yul\":2001:2064   */\n      swap3\n      pop\n        /* \"#utility.yul\":1956:2074   */\n      pop\n        /* \"#utility.yul\":2113:2115   */\n      0x40\n        /* \"#utility.yul\":2139:2192   */\n      tag_134\n        /* \"#utility.yul\":2184:2191   */\n      dup7\n        /* \"#utility.yul\":2175:2181   */\n      dup3\n        /* \"#utility.yul\":2164:2173   */\n      dup8\n        /* \"#utility.yul\":2160:2182   */\n      add\n        /* \"#utility.yul\":2139:2192   */\n      tag_107\n      jump\t// in\n    tag_134:\n        /* \"#utility.yul\":2129:2192   */\n      swap2\n      pop\n        /* \"#utility.yul\":2084:2202   */\n      pop\n        /* \"#utility.yul\":1410:2209   */\n      swap3\n      pop\n      swap3\n      pop\n      swap3\n      jump\t// out\n        /* \"#utility.yul\":2215:2544   */\n    tag_14:\n        /* \"#utility.yul\":2274:2280   */\n      0x00\n        /* \"#utility.yul\":2323:2325   */\n      0x20\n        /* \"#utility.yul\":2311:2320   */\n      dup3\n        /* \"#utility.yul\":2302:2309   */\n      dup5\n        /* \"#utility.yul\":2298:2321   */\n      sub\n        /* \"#utility.yul\":2294:2326   */\n      slt\n        /* \"#utility.yul\":2291:2410   */\n      iszero\n      tag_136\n      jumpi\n        /* \"#utility.yul\":2329:2408   */\n      tag_137\n      tag_124\n      jump\t// in\n    tag_137:\n        /* \"#utility.yul\":2291:2410   */\n    tag_136:\n        /* \"#utility.yul\":2449:2450   */\n      0x00\n        /* \"#utility.yul\":2474:2527   */\n      tag_138\n        /* \"#utility.yul\":2519:2526   */\n      dup5\n        /* \"#utility.yul\":2510:2516   */\n      dup3\n        /* \"#utility.yul\":2499:2508   */\n      dup6\n        /* \"#utility.yul\":2495:2517   */\n      add\n        /* \"#utility.yul\":2474:2527   */\n      tag_117\n      jump\t// in\n    tag_138:\n        /* \"#utility.yul\":2464:2527   */\n      swap2\n      pop\n        /* \"#utility.yul\":2420:2537   */\n      pop\n        /* \"#utility.yul\":2215:2544   */\n      swap3\n      swap2\n      pop\n      pop\n      jump\t// out\n        /* \"#utility.yul\":2550:2668   */\n    tag_139:\n        /* \"#utility.yul\":2637:2661   */\n      tag_141\n        /* \"#utility.yul\":2655:2660   */\n      dup2\n        /* \"#utility.yul\":2637:2661   */\n      tag_142\n      jump\t// in\n    tag_141:\n        /* \"#utility.yul\":2632:2635   */\n      dup3\n        /* \"#utility.yul\":2625:2662   */\n      mstore\n        /* \"#utility.yul\":2550:2668   */\n      pop\n      pop\n      jump\t// out\n        /* \"#utility.yul\":2674:2783   */\n    tag_143:\n        /* \"#utility.yul\":2755:2776   */\n      tag_145\n        /* \"#utility.yul\":2770:2775   */\n      dup2\n        /* \"#utility.yul\":2755:2776   */\n      tag_146\n      jump\t// in\n    tag_145:\n        /* \"#utility.yul\":2750:2753   */\n      dup3\n        /* \"#utility.yul\":2743:2777   */\n      mstore\n        /* \"#utility.yul\":2674:2783   */\n      pop\n      pop\n      jump\t// out\n        /* \"#utility.yul\":2789:3153   */\n    tag_147:\n        /* \"#utility.yul\":2877:2880   */\n      0x00\n        /* \"#utility.yul\":2905:2944   */\n      tag_149\n        /* \"#utility.yul\":2938:2943   */\n      dup3\n        /* \"#utility.yul\":2905:2944   */\n      tag_150\n      jump\t// in\n    tag_149:\n        /* \"#utility.yul\":2960:3031   */\n      tag_151\n        /* \"#utility.yul\":3024:3030   */\n      dup2\n        /* \"#utility.yul\":3019:3022   */\n      dup6\n        /* \"#utility.yul\":2960:3031   */\n      tag_152\n      jump\t// in\n    tag_151:\n        /* \"#utility.yul\":2953:3031   */\n      swap4\n      pop\n        /* \"#utility.yul\":3040:3092   */\n      tag_153\n        /* \"#utility.yul\":3085:3091   */\n      dup2\n        /* \"#utility.yul\":3080:3083   */\n      dup6\n        /* \"#utility.yul\":3073:3077   */\n      0x20\n        /* \"#utility.yul\":3066:3071   */\n      dup7\n        /* \"#utility.yul\":3062:3078   */\n      add\n        /* \"#utility.yul\":3040:3092   */\n      tag_154\n      jump\t// in\n    tag_153:\n        /* \"#utility.yul\":3117:3146   */\n      tag_155\n        /* \"#utility.yul\":3139:3145   */\n      dup2\n        /* \"#utility.yul\":3117:3146   */\n      tag_156\n      jump\t// in\n    tag_155:\n        /* \"#utility.yul\":3112:3115   */\n      dup5\n        /* \"#utility.yul\":3108:3147   */\n      add\n        /* \"#utility.yul\":3101:3147   */\n      swap2\n      pop\n        /* \"#utility.yul\":2881:3153   */\n      pop\n        /* \"#utility.yul\":2789:3153   */\n      swap3\n      swap2\n      pop\n      pop\n      jump\t// out\n        /* \"#utility.yul\":3159:3525   */\n    tag_157:\n        /* \"#utility.yul\":3301:3304   */\n      0x00\n        /* \"#utility.yul\":3322:3389   */\n      tag_159\n        /* \"#utility.yul\":3386:3388   */\n      0x0e\n        /* \"#utility.yul\":3381:3384   */\n      dup4\n        /* \"#utility.yul\":3322:3389   */\n      tag_152\n      jump\t// in\n    tag_159:\n        /* \"#utility.yul\":3315:3389   */\n      swap2\n      pop\n        /* \"#utility.yul\":3398:3491   */\n      tag_160\n        /* \"#utility.yul\":3487:3490   */\n      dup3\n        /* \"#utility.yul\":3398:3491   */\n      tag_161\n      jump\t// in\n    tag_160:\n        /* \"#utility.yul\":3516:3518   */\n      0x20\n        /* \"#utility.yul\":3511:3514   */\n      dup3\n        /* \"#utility.yul\":3507:3519   */\n      add\n        /* \"#utility.yul\":3500:3519   */\n      swap1\n      pop\n        /* \"#utility.yul\":3159:3525   */\n      swap2\n      swap1\n      pop\n      jump\t// out\n        /* \"#utility.yul\":3531:3929   */\n    tag_162:\n        /* \"#utility.yul\":3690:3693   */\n      0x00\n        /* \"#utility.yul\":3711:3794   */\n      tag_164\n        /* \"#utility.yul\":3792:3793   */\n      0x00\n        /* \"#utility.yul\":3787:3790   */\n      dup4\n        /* \"#utility.yul\":3711:3794   */\n      tag_165\n      jump\t// in\n    tag_164:\n        /* \"#utility.yul\":3704:3794   */\n      swap2\n      pop\n        /* \"#utility.yul\":3803:3896   */\n      tag_166\n        /* \"#utility.yul\":3892:3895   */\n      dup3\n        /* \"#utility.yul\":3803:3896   */\n      tag_167\n      jump\t// in\n    tag_166:\n        /* \"#utility.yul\":3921:3922   */\n      0x00\n        /* \"#utility.yul\":3916:3919   */\n      dup3\n        /* \"#utility.yul\":3912:3923   */\n      add\n        /* \"#utility.yul\":3905:3923   */\n      swap1\n      pop\n        /* \"#utility.yul\":3531:3929   */\n      swap2\n      swap1\n      pop\n      jump\t// out\n        /* \"#utility.yul\":3935:4053   */\n    tag_168:\n        /* \"#utility.yul\":4022:4046   */\n      tag_170\n        /* \"#utility.yul\":4040:4045   */\n      dup2\n        /* \"#utility.yul\":4022:4046   */\n      tag_171\n      jump\t// in\n    tag_170:\n        /* \"#utility.yul\":4017:4020   */\n      dup3\n        /* \"#utility.yul\":4010:4047   */\n      mstore\n        /* \"#utility.yul\":3935:4053   */\n      pop\n      pop\n      jump\t// out\n        /* \"#utility.yul\":4059:4438   */\n    tag_58:\n        /* \"#utility.yul\":4243:4246   */\n      0x00\n        /* \"#utility.yul\":4265:4412   */\n      tag_173\n        /* \"#utility.yul\":4408:4411   */\n      dup3\n        /* \"#utility.yul\":4265:4412   */\n      tag_162\n      jump\t// in\n    tag_173:\n        /* \"#utility.yul\":4258:4412   */\n      swap2\n      pop\n        /* \"#utility.yul\":4429:4432   */\n      dup2\n        /* \"#utility.yul\":4422:4432   */\n      swap1\n      pop\n        /* \"#utility.yul\":4059:4438   */\n      swap2\n      swap1\n      pop\n      jump\t// out\n        /* \"#utility.yul\":4444:4666   */\n    tag_27:\n        /* \"#utility.yul\":4537:4541   */\n      0x00\n        /* \"#utility.yul\":4575:4577   */\n      0x20\n        /* \"#utility.yul\":4564:4573   */\n      dup3\n        /* \"#utility.yul\":4560:4578   */\n      add\n        /* \"#utility.yul\":4552:4578   */\n      swap1\n      pop\n        /* \"#utility.yul\":4588:4659   */\n      tag_175\n        /* \"#utility.yul\":4656:4657   */\n      0x00\n        /* \"#utility.yul\":4645:4654   */\n      dup4\n        /* \"#utility.yul\":4641:4658   */\n      add\n        /* \"#utility.yul\":4632:4638   */\n      dup5\n        /* \"#utility.yul\":4588:4659   */\n      tag_139\n      jump\t// in\n    tag_175:\n        /* \"#utility.yul\":4444:4666   */\n      swap3\n      swap2\n      pop\n      pop\n      jump\t// out\n        /* \"#utility.yul\":4672:4882   */\n    tag_22:\n        /* \"#utility.yul\":4759:4763   */\n      0x00\n        /* \"#utility.yul\":4797:4799   */\n      0x20\n        /* \"#utility.yul\":4786:4795   */\n      dup3\n        /* \"#utility.yul\":4782:4800   */\n      add\n        /* \"#utility.yul\":4774:4800   */\n      swap1\n      pop\n        /* \"#utility.yul\":4810:4875   */\n      tag_177\n        /* \"#utility.yul\":4872:4873   */\n      0x00\n        /* \"#utility.yul\":4861:4870   */\n      dup4\n        /* \"#utility.yul\":4857:4874   */\n      add\n        /* \"#utility.yul\":4848:4854   */\n      dup5\n        /* \"#utility.yul\":4810:4875   */\n      tag_143\n      jump\t// in\n    tag_177:\n        /* \"#utility.yul\":4672:4882   */\n      swap3\n      swap2\n      pop\n      pop\n      jump\t// out\n        /* \"#utility.yul\":4888:5631   */\n    tag_33:\n        /* \"#utility.yul\":5107:5111   */\n      0x00\n        /* \"#utility.yul\":5145:5148   */\n      0xa0\n        /* \"#utility.yul\":5134:5143   */\n      dup3\n        /* \"#utility.yul\":5130:5149   */\n      add\n        /* \"#utility.yul\":5122:5149   */\n      swap1\n      pop\n        /* \"#utility.yul\":5195:5204   */\n      dup2\n        /* \"#utility.yul\":5189:5193   */\n      dup2\n        /* \"#utility.yul\":5185:5205   */\n      sub\n        /* \"#utility.yul\":5181:5182   */\n      0x00\n        /* \"#utility.yul\":5170:5179   */\n      dup4\n        /* \"#utility.yul\":5166:5183   */\n      add\n        /* \"#utility.yul\":5159:5206   */\n      mstore\n        /* \"#utility.yul\":5223:5301   */\n      tag_179\n        /* \"#utility.yul\":5296:5300   */\n      dup2\n        /* \"#utility.yul\":5287:5293   */\n      dup9\n        /* \"#utility.yul\":5223:5301   */\n      tag_147\n      jump\t// in\n    tag_179:\n        /* \"#utility.yul\":5215:5301   */\n      swap1\n      pop\n        /* \"#utility.yul\":5311:5383   */\n      tag_180\n        /* \"#utility.yul\":5379:5381   */\n      0x20\n        /* \"#utility.yul\":5368:5377   */\n      dup4\n        /* \"#utility.yul\":5364:5382   */\n      add\n        /* \"#utility.yul\":5355:5361   */\n      dup8\n        /* \"#utility.yul\":5311:5383   */\n      tag_168\n      jump\t// in\n    tag_180:\n        /* \"#utility.yul\":5393:5465   */\n      tag_181\n        /* \"#utility.yul\":5461:5463   */\n      0x40\n        /* \"#utility.yul\":5450:5459   */\n      dup4\n        /* \"#utility.yul\":5446:5464   */\n      add\n        /* \"#utility.yul\":5437:5443   */\n      dup7\n        /* \"#utility.yul\":5393:5465   */\n      tag_139\n      jump\t// in\n    tag_181:\n        /* \"#utility.yul\":5475:5541   */\n      tag_182\n        /* \"#utility.yul\":5537:5539   */\n      0x60\n        /* \"#utility.yul\":5526:5535   */\n      dup4\n        /* \"#utility.yul\":5522:5540   */\n      add\n        /* \"#utility.yul\":5513:5519   */\n      dup6\n        /* \"#utility.yul\":5475:5541   */\n      tag_143\n      jump\t// in\n    tag_182:\n        /* \"#utility.yul\":5551:5624   */\n      tag_183\n        /* \"#utility.yul\":5619:5622   */\n      0x80\n        /* \"#utility.yul\":5608:5617   */\n      dup4\n        /* \"#utility.yul\":5604:5623   */\n      add\n        /* \"#utility.yul\":5595:5601   */\n      dup5\n        /* \"#utility.yul\":5551:5624   */\n      tag_168\n      jump\t// in\n    tag_183:\n        /* \"#utility.yul\":4888:5631   */\n      swap7\n      swap6\n      pop\n      pop\n      pop\n      pop\n      pop\n      pop\n      jump\t// out\n        /* \"#utility.yul\":5637:6056   */\n    tag_64:\n        /* \"#utility.yul\":5803:5807   */\n      0x00\n        /* \"#utility.yul\":5841:5843   */\n      0x20\n        /* \"#utility.yul\":5830:5839   */\n      dup3\n        /* \"#utility.yul\":5826:5844   */\n      add\n        /* \"#utility.yul\":5818:5844   */\n      swap1\n      pop\n        /* \"#utility.yul\":5890:5899   */\n      dup2\n        /* \"#utility.yul\":5884:5888   */\n      dup2\n        /* \"#utility.yul\":5880:5900   */\n      sub\n        /* \"#utility.yul\":5876:5877   */\n      0x00\n        /* \"#utility.yul\":5865:5874   */\n      dup4\n        /* \"#utility.yul\":5861:5878   */\n      add\n        /* \"#utility.yul\":5854:5901   */\n      mstore\n        /* \"#utility.yul\":5918:6049   */\n      tag_185\n        /* \"#utility.yul\":6044:6048   */\n      dup2\n        /* \"#utility.yul\":5918:6049   */\n      tag_157\n      jump\t// in\n    tag_185:\n        /* \"#utility.yul\":5910:6049   */\n      swap1\n      pop\n        /* \"#utility.yul\":5637:6056   */\n      swap2\n      swap1\n      pop\n      jump\t// out\n        /* \"#utility.yul\":6062:6284   */\n    tag_43:\n        /* \"#utility.yul\":6155:6159   */\n      0x00\n        /* \"#utility.yul\":6193:6195   */\n      0x20\n        /* \"#utility.yul\":6182:6191   */\n      dup3\n        /* \"#utility.yul\":6178:6196   */\n      add\n        /* \"#utility.yul\":6170:6196   */\n      swap1\n      pop\n        /* \"#utility.yul\":6206:6277   */\n      tag_187\n        /* \"#utility.yul\":6274:6275   */\n      0x00\n        /* \"#utility.yul\":6263:6272   */\n      dup4\n        /* \"#utility.yul\":6259:6276   */\n      add\n        /* \"#utility.yul\":6250:6256   */\n      dup5\n        /* \"#utility.yul\":6206:6277   */\n      tag_168\n      jump\t// in\n    tag_187:\n        /* \"#utility.yul\":6062:6284   */\n      swap3\n      swap2\n      pop\n      pop\n      jump\t// out\n        /* \"#utility.yul\":6290:6419   */\n    tag_101:\n        /* \"#utility.yul\":6324:6330   */\n      0x00\n        /* \"#utility.yul\":6351:6371   */\n      tag_189\n      tag_190\n      jump\t// in\n    tag_189:\n        /* \"#utility.yul\":6341:6371   */\n      swap1\n      pop\n        /* \"#utility.yul\":6380:6413   */\n      tag_191\n        /* \"#utility.yul\":6408:6412   */\n      dup3\n        /* \"#utility.yul\":6400:6406   */\n      dup3\n        /* \"#utility.yul\":6380:6413   */\n      tag_192\n      jump\t// in\n    tag_191:\n        /* \"#utility.yul\":6290:6419   */\n      swap2\n      swap1\n      pop\n      jump\t// out\n        /* \"#utility.yul\":6425:6500   */\n    tag_190:\n        /* \"#utility.yul\":6458:6464   */\n      0x00\n        /* \"#utility.yul\":6491:6493   */\n      0x40\n        /* \"#utility.yul\":6485:6494   */\n      mload\n        /* \"#utility.yul\":6475:6494   */\n      swap1\n      pop\n        /* \"#utility.yul\":6425:6500   */\n      swap1\n      jump\t// out\n        /* \"#utility.yul\":6506:6814   */\n    tag_100:\n        /* \"#utility.yul\":6568:6572   */\n      0x00\n        /* \"#utility.yul\":6658:6676   */\n      0xffffffffffffffff\n        /* \"#utility.yul\":6650:6656   */\n      dup3\n        /* \"#utility.yul\":6647:6677   */\n      gt\n        /* \"#utility.yul\":6644:6700   */\n      iszero\n      tag_195\n      jumpi\n        /* \"#utility.yul\":6680:6698   */\n      tag_196\n      tag_197\n      jump\t// in\n    tag_196:\n        /* \"#utility.yul\":6644:6700   */\n    tag_195:\n        /* \"#utility.yul\":6718:6747   */\n      tag_198\n        /* \"#utility.yul\":6740:6746   */\n      dup3\n        /* \"#utility.yul\":6718:6747   */\n      tag_156\n      jump\t// in\n    tag_198:\n        /* \"#utility.yul\":6710:6747   */\n      swap1\n      pop\n        /* \"#utility.yul\":6802:6806   */\n      0x20\n        /* \"#utility.yul\":6796:6800   */\n      dup2\n        /* \"#utility.yul\":6792:6807   */\n      add\n        /* \"#utility.yul\":6784:6807   */\n      swap1\n      pop\n        /* \"#utility.yul\":6506:6814   */\n      swap2\n      swap1\n      pop\n      jump\t// out\n        /* \"#utility.yul\":6820:6919   */\n    tag_150:\n        /* \"#utility.yul\":6872:6878   */\n      0x00\n        /* \"#utility.yul\":6906:6911   */\n      dup2\n        /* \"#utility.yul\":6900:6912   */\n      mload\n        /* \"#utility.yul\":6890:6912   */\n      swap1\n      pop\n        /* \"#utility.yul\":6820:6919   */\n      swap2\n      swap1\n      pop\n      jump\t// out\n        /* \"#utility.yul\":6925:7072   */\n    tag_165:\n        /* \"#utility.yul\":7026:7037   */\n      0x00\n        /* \"#utility.yul\":7063:7066   */\n      dup2\n        /* \"#utility.yul\":7048:7066   */\n      swap1\n      pop\n        /* \"#utility.yul\":6925:7072   */\n      swap3\n      swap2\n      pop\n      pop\n      jump\t// out\n        /* \"#utility.yul\":7078:7247   */\n    tag_152:\n        /* \"#utility.yul\":7162:7173   */\n      0x00\n        /* \"#utility.yul\":7196:7202   */\n      dup3\n        /* \"#utility.yul\":7191:7194   */\n      dup3\n        /* \"#utility.yul\":7184:7203   */\n      mstore\n        /* \"#utility.yul\":7236:7240   */\n      0x20\n        /* \"#utility.yul\":7231:7234   */\n      dup3\n        /* \"#utility.yul\":7227:7241   */\n      add\n        /* \"#utility.yul\":7212:7241   */\n      swap1\n      pop\n        /* \"#utility.yul\":7078:7247   */\n      swap3\n      swap2\n      pop\n      pop\n      jump\t// out\n        /* \"#utility.yul\":7253:7438   */\n    tag_54:\n        /* \"#utility.yul\":7293:7294   */\n      0x00\n        /* \"#utility.yul\":7310:7330   */\n      tag_203\n        /* \"#utility.yul\":7328:7329   */\n      dup3\n        /* \"#utility.yul\":7310:7330   */\n      tag_171\n      jump\t// in\n    tag_203:\n        /* \"#utility.yul\":7305:7330   */\n      swap2\n      pop\n        /* \"#utility.yul\":7344:7364   */\n      tag_204\n        /* \"#utility.yul\":7362:7363   */\n      dup4\n        /* \"#utility.yul\":7344:7364   */\n      tag_171\n      jump\t// in\n    tag_204:\n        /* \"#utility.yul\":7339:7364   */\n      swap3\n      pop\n        /* \"#utility.yul\":7383:7384   */\n      dup3\n        /* \"#utility.yul\":7373:7408   */\n      tag_205\n      jumpi\n        /* \"#utility.yul\":7388:7406   */\n      tag_206\n      tag_207\n      jump\t// in\n    tag_206:\n        /* \"#utility.yul\":7373:7408   */\n    tag_205:\n        /* \"#utility.yul\":7430:7431   */\n      dup3\n        /* \"#utility.yul\":7427:7428   */\n      dup3\n        /* \"#utility.yul\":7423:7432   */\n      div\n        /* \"#utility.yul\":7418:7432   */\n      swap1\n      pop\n        /* \"#utility.yul\":7253:7438   */\n      swap3\n      swap2\n      pop\n      pop\n      jump\t// out\n        /* \"#utility.yul\":7444:7540   */\n    tag_142:\n        /* \"#utility.yul\":7481:7488   */\n      0x00\n        /* \"#utility.yul\":7510:7534   */\n      tag_209\n        /* \"#utility.yul\":7528:7533   */\n      dup3\n        /* \"#utility.yul\":7510:7534   */\n      tag_210\n      jump\t// in\n    tag_209:\n        /* \"#utility.yul\":7499:7534   */\n      swap1\n      pop\n        /* \"#utility.yul\":7444:7540   */\n      swap2\n      swap1\n      pop\n      jump\t// out\n        /* \"#utility.yul\":7546:7636   */\n    tag_146:\n        /* \"#utility.yul\":7580:7587   */\n      0x00\n        /* \"#utility.yul\":7623:7628   */\n      dup2\n        /* \"#utility.yul\":7616:7629   */\n      iszero\n        /* \"#utility.yul\":7609:7630   */\n      iszero\n        /* \"#utility.yul\":7598:7630   */\n      swap1\n      pop\n        /* \"#utility.yul\":7546:7636   */\n      swap2\n      swap1\n      pop\n      jump\t// out\n        /* \"#utility.yul\":7642:7768   */\n    tag_210:\n        /* \"#utility.yul\":7679:7686   */\n      0x00\n        /* \"#utility.yul\":7719:7761   */\n      0xffffffffffffffffffffffffffffffffffffffff\n        /* \"#utility.yul\":7712:7717   */\n      dup3\n        /* \"#utility.yul\":7708:7762   */\n      and\n        /* \"#utility.yul\":7697:7762   */\n      swap1\n      pop\n        /* \"#utility.yul\":7642:7768   */\n      swap2\n      swap1\n      pop\n      jump\t// out\n        /* \"#utility.yul\":7774:7851   */\n    tag_171:\n        /* \"#utility.yul\":7811:7818   */\n      0x00\n        /* \"#utility.yul\":7840:7845   */\n      dup2\n        /* \"#utility.yul\":7829:7845   */\n      swap1\n      pop\n        /* \"#utility.yul\":7774:7851   */\n      swap2\n      swap1\n      pop\n      jump\t// out\n        /* \"#utility.yul\":7857:8011   */\n    tag_106:\n        /* \"#utility.yul\":7941:7947   */\n      dup3\n        /* \"#utility.yul\":7936:7939   */\n      dup2\n        /* \"#utility.yul\":7931:7934   */\n      dup4\n        /* \"#utility.yul\":7918:7948   */\n      calldatacopy\n        /* \"#utility.yul\":8003:8004   */\n      0x00\n        /* \"#utility.yul\":7994:8000   */\n      dup4\n        /* \"#utility.yul\":7989:7992   */\n      dup4\n        /* \"#utility.yul\":7985:8001   */\n      add\n        /* \"#utility.yul\":7978:8005   */\n      mstore\n        /* \"#utility.yul\":7857:8011   */\n      pop\n      pop\n      pop\n      jump\t// out\n        /* \"#utility.yul\":8017:8324   */\n    tag_154:\n        /* \"#utility.yul\":8085:8086   */\n      0x00\n        /* \"#utility.yul\":8095:8208   */\n    tag_216:\n        /* \"#utility.yul\":8109:8115   */\n      dup4\n        /* \"#utility.yul\":8106:8107   */\n      dup2\n        /* \"#utility.yul\":8103:8116   */\n      lt\n        /* \"#utility.yul\":8095:8208   */\n      iszero\n      tag_218\n      jumpi\n        /* \"#utility.yul\":8194:8195   */\n      dup1\n        /* \"#utility.yul\":8189:8192   */\n      dup3\n        /* \"#utility.yul\":8185:8196   */\n      add\n        /* \"#utility.yul\":8179:8197   */\n      mload\n        /* \"#utility.yul\":8175:8176   */\n      dup2\n        /* \"#utility.yul\":8170:8173   */\n      dup5\n        /* \"#utility.yul\":8166:8177   */\n      add\n        /* \"#utility.yul\":8159:8198   */\n      mstore\n        /* \"#utility.yul\":8131:8133   */\n      0x20\n        /* \"#utility.yul\":8128:8129   */\n      dup2\n        /* \"#utility.yul\":8124:8134   */\n      add\n        /* \"#utility.yul\":8119:8134   */\n      swap1\n      pop\n        /* \"#utility.yul\":8095:8208   */\n      jump(tag_216)\n    tag_218:\n        /* \"#utility.yul\":8226:8232   */\n      dup4\n        /* \"#utility.yul\":8223:8224   */\n      dup2\n        /* \"#utility.yul\":8220:8233   */\n      gt\n        /* \"#utility.yul\":8217:8318   */\n      iszero\n      tag_219\n      jumpi\n        /* \"#utility.yul\":8306:8307   */\n      0x00\n        /* \"#utility.yul\":8297:8303   */\n      dup5\n        /* \"#utility.yul\":8292:8295   */\n      dup5\n        /* \"#utility.yul\":8288:8304   */\n      add\n        /* \"#utility.yul\":8281:8308   */\n      mstore\n        /* \"#utility.yul\":8217:8318   */\n    tag_219:\n        /* \"#utility.yul\":8066:8324   */\n      pop\n        /* \"#utility.yul\":8017:8324   */\n      pop\n      pop\n      pop\n      jump\t// out\n        /* \"#utility.yul\":8330:8650   */\n    tag_66:\n        /* \"#utility.yul\":8374:8380   */\n      0x00\n        /* \"#utility.yul\":8411:8412   */\n      0x02\n        /* \"#utility.yul\":8405:8409   */\n      dup3\n        /* \"#utility.yul\":8401:8413   */\n      div\n        /* \"#utility.yul\":8391:8413   */\n      swap1\n      pop\n        /* \"#utility.yul\":8458:8459   */\n      0x01\n        /* \"#utility.yul\":8452:8456   */\n      dup3\n        /* \"#utility.yul\":8448:8460   */\n      and\n        /* \"#utility.yul\":8479:8497   */\n      dup1\n        /* \"#utility.yul\":8469:8550   */\n      tag_221\n      jumpi\n        /* \"#utility.yul\":8535:8539   */\n      0x7f\n        /* \"#utility.yul\":8527:8533   */\n      dup3\n        /* \"#utility.yul\":8523:8540   */\n      and\n        /* \"#utility.yul\":8513:8540   */\n      swap2\n      pop\n        /* \"#utility.yul\":8469:8550   */\n    tag_221:\n        /* \"#utility.yul\":8597:8599   */\n      0x20\n        /* \"#utility.yul\":8589:8595   */\n      dup3\n        /* \"#utility.yul\":8586:8600   */\n      lt\n        /* \"#utility.yul\":8566:8584   */\n      dup2\n        /* \"#utility.yul\":8563:8601   */\n      eq\n        /* \"#utility.yul\":8560:8644   */\n      iszero\n      tag_222\n      jumpi\n        /* \"#utility.yul\":8616:8634   */\n      tag_223\n      tag_224\n      jump\t// in\n    tag_223:\n        /* \"#utility.yul\":8560:8644   */\n    tag_222:\n        /* \"#utility.yul\":8381:8650   */\n      pop\n        /* \"#utility.yul\":8330:8650   */\n      swap2\n      swap1\n      pop\n      jump\t// out\n        /* \"#utility.yul\":8656:8937   */\n    tag_192:\n        /* \"#utility.yul\":8739:8766   */\n      tag_226\n        /* \"#utility.yul\":8761:8765   */\n      dup3\n        /* \"#utility.yul\":8739:8766   */\n      tag_156\n      jump\t// in\n    tag_226:\n        /* \"#utility.yul\":8731:8737   */\n      dup2\n        /* \"#utility.yul\":8727:8767   */\n      add\n        /* \"#utility.yul\":8869:8875   */\n      dup2\n        /* \"#utility.yul\":8857:8867   */\n      dup2\n        /* \"#utility.yul\":8854:8876   */\n      lt\n        /* \"#utility.yul\":8833:8851   */\n      0xffffffffffffffff\n        /* \"#utility.yul\":8821:8831   */\n      dup3\n        /* \"#utility.yul\":8818:8852   */\n      gt\n        /* \"#utility.yul\":8815:8877   */\n      or\n        /* \"#utility.yul\":8812:8900   */\n      iszero\n      tag_227\n      jumpi\n        /* \"#utility.yul\":8880:8898   */\n      tag_228\n      tag_197\n      jump\t// in\n    tag_228:\n        /* \"#utility.yul\":8812:8900   */\n    tag_227:\n        /* \"#utility.yul\":8920:8930   */\n      dup1\n        /* \"#utility.yul\":8916:8918   */\n      0x40\n        /* \"#utility.yul\":8909:8931   */\n      mstore\n        /* \"#utility.yul\":8699:8937   */\n      pop\n        /* \"#utility.yul\":8656:8937   */\n      pop\n      pop\n      jump\t// out\n        /* \"#utility.yul\":8943:9176   */\n    tag_75:\n        /* \"#utility.yul\":8982:8985   */\n      0x00\n        /* \"#utility.yul\":9005:9029   */\n      tag_230\n        /* \"#utility.yul\":9023:9028   */\n      dup3\n        /* \"#utility.yul\":9005:9029   */\n      tag_171\n      jump\t// in\n    tag_230:\n        /* \"#utility.yul\":8996:9029   */\n      swap2\n      pop\n        /* \"#utility.yul\":9051:9117   */\n      0xffffffffffffffffffffffffffffffffffffffffffffffffffffffffffffffff\n        /* \"#utility.yul\":9044:9049   */\n      dup3\n        /* \"#utility.yul\":9041:9118   */\n      eq\n        /* \"#utility.yul\":9038:9141   */\n      iszero\n      tag_231\n      jumpi\n        /* \"#utility.yul\":9121:9139   */\n      tag_232\n      tag_233\n      jump\t// in\n    tag_232:\n        /* \"#utility.yul\":9038:9141   */\n    tag_231:\n        /* \"#utility.yul\":9168:9169   */\n      0x01\n        /* \"#utility.yul\":9161:9166   */\n      dup3\n        /* \"#utility.yul\":9157:9170   */\n      add\n        /* \"#utility.yul\":9150:9170   */\n      swap1\n      pop\n        /* \"#utility.yul\":8943:9176   */\n      swap2\n      swap1\n      pop\n      jump\t// out\n        /* \"#utility.yul\":9182:9362   */\n    tag_233:\n        /* \"#utility.yul\":9230:9307   */\n      0x4e487b7100000000000000000000000000000000000000000000000000000000\n        /* \"#utility.yul\":9227:9228   */\n      0x00\n        /* \"#utility.yul\":9220:9308   */\n      mstore\n        /* \"#utility.yul\":9327:9331   */\n      0x11\n        /* \"#utility.yul\":9324:9325   */\n      0x04\n        /* \"#utility.yul\":9317:9332   */\n      mstore\n        /* \"#utility.yul\":9351:9355   */\n      0x24\n        /* \"#utility.yul\":9348:9349   */\n      0x00\n        /* \"#utility.yul\":9341:9356   */\n      revert\n        /* \"#utility.yul\":9368:9548   */\n    tag_207:\n        /* \"#utility.yul\":9416:9493   */\n      0x4e487b7100000000000000000000000000000000000000000000000000000000\n        /* \"#utility.yul\":9413:9414   */\n      0x00\n        /* \"#utility.yul\":9406:9494   */\n      mstore\n        /* \"#utility.yul\":9513:9517   */\n      0x12\n        /* \"#utility.yul\":9510:9511   */\n      0x04\n        /* \"#utility.yul\":9503:9518   */\n      mstore\n        /* \"#utility.yul\":9537:9541   */\n      0x24\n        /* \"#utility.yul\":9534:9535   */\n      0x00\n        /* \"#utility.yul\":9527:9542   */\n      revert\n        /* \"#utility.yul\":9554:9734   */\n    tag_224:\n        /* \"#utility.yul\":9602:9679   */\n      0x4e487b7100000000000000000000000000000000000000000000000000000000\n        /* \"#utility.yul\":9599:9600   */\n      0x00\n        /* \"#utility.yul\":9592:9680   */\n      mstore\n        /* \"#utility.yul\":9699:9703   */\n      0x22\n        /* \"#utility.yul\":9696:9697   */\n      0x04\n        /* \"#utility.yul\":9689:9704   */\n      mstore\n        /* \"#utility.yul\":9723:9727   */\n      0x24\n        /* \"#utility.yul\":9720:9721   */\n      0x00\n        /* \"#utility.yul\":9713:9728   */\n      revert\n        /* \"#utility.yul\":9740:9920   */\n    tag_197:\n        /* \"#utility.yul\":9788:9865   */\n      0x4e487b7100000000000000000000000000000000000000000000000000000000\n        /* \"#utility.yul\":9785:9786   */\n      0x00\n        /* \"#utility.yul\":9778:9866   */\n      mstore\n        /* \"#utility.yul\":9885:9889   */\n      0x41\n        /* \"#utility.yul\":9882:9883   */\n      0x04\n        /* \"#utility.yul\":9875:9890   */\n      mstore\n        /* \"#utility.yul\":9909:9913   */\n      0x24\n        /* \"#utility.yul\":9906:9907   */\n      0x00\n        /* \"#utility.yul\":9899:9914   */\n      revert\n        /* \"#utility.yul\":9926:10043   */\n    tag_115:\n        /* \"#utility.yul\":10035:10036   */\n      0x00\n        /* \"#utility.yul\":10032:10033   */\n      dup1\n        /* \"#utility.yul\":10025:10037   */\n      revert\n        /* \"#utility.yul\":10049:10166   */\n    tag_104:\n        /* \"#utility.yul\":10158:10159   */\n      0x00\n        /* \"#utility.yul\":10155:10156   */\n      dup1\n        /* \"#utility.yul\":10148:10160   */\n      revert\n        /* \"#utility.yul\":10172:10289   */\n    tag_131:\n        /* \"#utility.yul\":10281:10282   */\n      0x00\n        /* \"#utility.yul\":10278:10279   */\n      dup1\n        /* \"#utility.yul\":10271:10283   */\n      revert\n        /* \"#utility.yul\":10295:10412   */\n    tag_124:\n        /* \"#utility.yul\":10404:10405   */\n      0x00\n        /* \"#utility.yul\":10401:10402   */\n      dup1\n        /* \"#utility.yul\":10394:10406   */\n      revert\n        /* \"#utility.yul\":10418:10520   */\n    tag_156:\n        /* \"#utility.yul\":10459:10465   */\n      0x00\n        /* \"#utility.yul\":10510:10512   */\n      0x1f\n        /* \"#utility.yul\":10506:10513   */\n      not\n        /* \"#utility.yul\":10501:10503   */\n      0x1f\n        /* \"#utility.yul\":10494:10499   */\n      dup4\n        /* \"#utility.yul\":10490:10504   */\n      add\n        /* \"#utility.yul\":10486:10514   */\n      and\n        /* \"#utility.yul\":10476:10514   */\n      swap1\n      pop\n        /* \"#utility.yul\":10418:10520   */\n      swap2\n      swap1\n      pop\n      jump\t// out\n        /* \"#utility.yul\":10526:10690   */\n    tag_161:\n        /* \"#utility.yul\":10666:10682   */\n      0x4574686572206e6f742073656e74000000000000000000000000000000000000\n        /* \"#utility.yul\":10662:10663   */\n      0x00\n        /* \"#utility.yul\":10654:10660   */\n      dup3\n        /* \"#utility.yul\":10650:10664   */\n      add\n        /* \"#utility.yul\":10643:10683   */\n      mstore\n        /* \"#utility.yul\":10526:10690   */\n      pop\n      jump\t// out\n        /* \"#utility.yul\":10696:10810   */\n    tag_167:\n      pop\n      jump\t// out\n        /* \"#utility.yul\":10816:10938   */\n    tag_110:\n        /* \"#utility.yul\":10889:10913   */\n      tag_246\n        /* \"#utility.yul\":10907:10912   */\n      dup2\n        /* \"#utility.yul\":10889:10913   */\n      tag_142\n      jump\t// in\n    tag_246:\n        /* \"#utility.yul\":10882:10887   */\n      dup2\n        /* \"#utility.yul\":10879:10914   */\n      eq\n        /* \"#utility.yul\":10869:10932   */\n      tag_247\n      jumpi\n        /* \"#utility.yul\":10928:10929   */\n      0x00\n        /* \"#utility.yul\":10925:10926   */\n      dup1\n        /* \"#utility.yul\":10918:10930   */\n      revert\n        /* \"#utility.yul\":10869:10932   */\n    tag_247:\n        /* \"#utility.yul\":10816:10938   */\n      pop\n      jump\t// out\n        /* \"#utility.yul\":10944:11066   */\n    tag_120:\n        /* \"#utility.yul\":11017:11041   */\n      tag_249\n        /* \"#utility.yul\":11035:11040   */\n      dup2\n        /* \"#utility.yul\":11017:11041   */\n      tag_171\n      jump\t// in\n    tag_249:\n        /* \"#utility.yul\":11010:11015   */\n      dup2\n        /* \"#utility.yul\":11007:11042   */\n      eq\n        /* \"#utility.yul\":10997:11060   */\n      tag_250\n      jumpi\n        /* \"#utility.yul\":11056:11057   */\n      0x00\n        /* \"#utility.yul\":11053:11054   */\n      dup1\n        /* \"#utility.yul\":11046:11058   */\n      revert\n        /* \"#utility.yul\":10997:11060   */\n    tag_250:\n        /* \"#utility.yul\":10944:11066   */\n      pop\n      jump\t// out\n\n    auxdata: 0xa26469706673582212207403d20d853b38088a1cb9d9d9da1034dc3a97d95f9854bfe450051e89577f4064736f6c63430008070033\n}\n",
				"bytecode": {
					"linkReferences": {},
					"object": "60806040523480156200001157600080fd5b5060405162000fed38038062000fed8339818101604052810190620000379190620000b4565b806000806101000a81548173ffffffffffffffffffffffffffffffffffffffff021916908373ffffffffffffffffffffffffffffffffffffffff16021790555081600181905550505062000172565b60008151905062000097816200013e565b92915050565b600081519050620000ae8162000158565b92915050565b60008060408385031215620000ce57620000cd62000139565b5b6000620000de858286016200009d565b9250506020620000f18582860162000086565b9150509250929050565b600062000108826200010f565b9050919050565b600073ffffffffffffffffffffffffffffffffffffffff82169050919050565b6000819050919050565b600080fd5b6200014981620000fb565b81146200015557600080fd5b50565b62000163816200012f565b81146200016f57600080fd5b50565b610e6b80620001826000396000f3fe60806040526004361061007b5760003560e01c80638a9cfd551161004e5780638a9cfd5514610152578063937e09b11461017b578063d7bb99ba146101a6578063d7d1bbdb146101b05761007b565b806303441006146100805780630a144391146100a9578063481c6a75146100e657806381d12c5814610111575b600080fd5b34801561008c57600080fd5b506100a760048036038101906100a2919061095d565b6101d9565b005b3480156100b557600080fd5b506100d060048036038101906100cb91906108c1565b61037a565b6040516100dd9190610a66565b60405180910390f35b3480156100f257600080fd5b506100fb61039a565b6040516101089190610a4b565b60405180910390f35b34801561011d57600080fd5b506101386004803603810190610133919061095d565b6103be565b604051610149959493929190610a81565b60405180910390f35b34801561015e57600080fd5b50610179600480360381019061017491906108ee565b6104a9565b005b34801561018757600080fd5b506101906105c0565b60405161019d9190610afb565b60405180910390f35b6101ae6105c6565b005b3480156101bc57600080fd5b506101d760048036038101906101d2919061095d565b610646565b005b60008054906101000a900473ffffffffffffffffffffffffffffffffffffffff1673ffffffffffffffffffffffffffffffffffffffff163373ffffffffffffffffffffffffffffffffffffffff161461023157600080fd5b600060036000838152602001908152602001600020905060026005546102579190610b93565b81600301541161026657600080fd5b8060020160149054906101000a900460ff161561028257600080fd5b60008160020160009054906101000a900473ffffffffffffffffffffffffffffffffffffffff16905060018260020160146101000a81548160ff02191690831515021790555060008173ffffffffffffffffffffffffffffffffffffffff16476040516102ee90610a36565b60006040518083038185875af1925050503d806000811461032b576040519150601f19603f3d011682016040523d82523d6000602084013e610330565b606091505b5050905080610374576040517f08c379a000000000000000000000000000000000000000000000000000000000815260040161036b90610adb565b60405180910390fd5b50505050565b60026020528060005260406000206000915054906101000a900460ff1681565b60008054906101000a900473ffffffffffffffffffffffffffffffffffffffff1681565b60036020528060005260406000206000915090508060000180546103e190610c4e565b80601f016020809104026020016040519081016040528092919081815260200182805461040d90610c4e565b801561045a5780601f1061042f5761010080835404028352916020019161045a565b820191906000526020600020905b81548152906001019060200180831161043d57829003601f168201915b5050505050908060010154908060020160009054906101000a900473ffffffffffffffffffffffffffffffffffffffff16908060020160149054906101000a900460ff16908060030154905085565b60008054906101000a900473ffffffffffffffffffffffffffffffffffffffff1673ffffffffffffffffffffffffffffffffffffffff163373ffffffffffffffffffffffffffffffffffffffff161461050157600080fd5b6000600360006004600081548092919061051a90610cb1565b919050558152602001908152602001600020905083816000019080519060200190610546929190610784565b50828160010181905550818160020160006101000a81548173ffffffffffffffffffffffffffffffffffffffff021916908373ffffffffffffffffffffffffffffffffffffffff16021790555060008160020160146101000a81548160ff0219169083151502179055506000816003018190555050505050565b60015481565b60015434116105d457600080fd5b6001600260003373ffffffffffffffffffffffffffffffffffffffff1673ffffffffffffffffffffffffffffffffffffffff16815260200190815260200160002060006101000a81548160ff0219169083151502179055506005600081548092919061063f90610cb1565b9190505550565b6000600360008381526020019081526020016000209050600260003373ffffffffffffffffffffffffffffffffffffffff1673ffffffffffffffffffffffffffffffffffffffff16815260200190815260200160002060009054906101000a900460ff166106b357600080fd5b8060040160003373ffffffffffffffffffffffffffffffffffffffff1673ffffffffffffffffffffffffffffffffffffffff16815260200190815260200160002060009054906101000a900460ff161561070c57600080fd5b60018160040160003373ffffffffffffffffffffffffffffffffffffffff1673ffffffffffffffffffffffffffffffffffffffff16815260200190815260200160002060006101000a81548160ff02191690831515021790555080600301600081548092919061077b90610cb1565b91905055505050565b82805461079090610c4e565b90600052602060002090601f0160209004810192826107b257600085556107f9565b82601f106107cb57805160ff19168380011785556107f9565b828001600101855582156107f9579182015b828111156107f85782518255916020019190600101906107dd565b5b509050610806919061080a565b5090565b5b8082111561082357600081600090555060010161080b565b5090565b600061083a61083584610b3b565b610b16565b90508281526020810184848401111561085657610855610dbb565b5b610861848285610c0c565b509392505050565b60008135905061087881610e07565b92915050565b600082601f83011261089357610892610db6565b5b81356108a3848260208601610827565b91505092915050565b6000813590506108bb81610e1e565b92915050565b6000602082840312156108d7576108d6610dc5565b5b60006108e584828501610869565b91505092915050565b60008060006060848603121561090757610906610dc5565b5b600084013567ffffffffffffffff81111561092557610924610dc0565b5b6109318682870161087e565b9350506020610942868287016108ac565b925050604061095386828701610869565b9150509250925092565b60006020828403121561097357610972610dc5565b5b6000610981848285016108ac565b91505092915050565b61099381610bc4565b82525050565b6109a281610bd6565b82525050565b60006109b382610b6c565b6109bd8185610b82565b93506109cd818560208601610c1b565b6109d681610dca565b840191505092915050565b60006109ee600e83610b82565b91506109f982610ddb565b602082019050919050565b6000610a11600083610b77565b9150610a1c82610e04565b600082019050919050565b610a3081610c02565b82525050565b6000610a4182610a04565b9150819050919050565b6000602082019050610a60600083018461098a565b92915050565b6000602082019050610a7b6000830184610999565b92915050565b600060a0820190508181036000830152610a9b81886109a8565b9050610aaa6020830187610a27565b610ab7604083018661098a565b610ac46060830185610999565b610ad16080830184610a27565b9695505050505050565b60006020820190508181036000830152610af4816109e1565b9050919050565b6000602082019050610b106000830184610a27565b92915050565b6000610b20610b31565b9050610b2c8282610c80565b919050565b6000604051905090565b600067ffffffffffffffff821115610b5657610b55610d87565b5b610b5f82610dca565b9050602081019050919050565b600081519050919050565b600081905092915050565b600082825260208201905092915050565b6000610b9e82610c02565b9150610ba983610c02565b925082610bb957610bb8610d29565b5b828204905092915050565b6000610bcf82610be2565b9050919050565b60008115159050919050565b600073ffffffffffffffffffffffffffffffffffffffff82169050919050565b6000819050919050565b82818337600083830152505050565b60005b83811015610c39578082015181840152602081019050610c1e565b83811115610c48576000848401525b50505050565b60006002820490506001821680610c6657607f821691505b60208210811415610c7a57610c79610d58565b5b50919050565b610c8982610dca565b810181811067ffffffffffffffff82111715610ca857610ca7610d87565b5b80604052505050565b6000610cbc82610c02565b91507fffffffffffffffffffffffffffffffffffffffffffffffffffffffffffffffff821415610cef57610cee610cfa565b5b600182019050919050565b7f4e487b7100000000000000000000000000000000000000000000000000000000600052601160045260246000fd5b7f4e487b7100000000000000000000000000000000000000000000000000000000600052601260045260246000fd5b7f4e487b7100000000000000000000000000000000000000000000000000000000600052602260045260246000fd5b7f4e487b7100000000000000000000000000000000000000000000000000000000600052604160045260246000fd5b600080fd5b600080fd5b600080fd5b600080fd5b6000601f19601f8301169050919050565b7f4574686572206e6f742073656e74000000000000000000000000000000000000600082015250565b50565b610e1081610bc4565b8114610e1b57600080fd5b50565b610e2781610c02565b8114610e3257600080fd5b5056fea26469706673582212207403d20d853b38088a1cb9d9d9da1034dc3a97d95f9854bfe450051e89577f4064736f6c63430008070033",
					"opcodes": "PUSH1 0x80 PUSH1 0x40 MSTORE CALLVALUE DUP1 ISZERO PUSH3 0x11 JUMPI PUSH1 0x0 DUP1 REVERT JUMPDEST POP PUSH1 0x40 MLOAD PUSH3 0xFED CODESIZE SUB DUP1 PUSH3 0xFED DUP4 CODECOPY DUP2 DUP2 ADD PUSH1 0x40 MSTORE DUP2 ADD SWAP1 PUSH3 0x37 SWAP2 SWAP1 PUSH3 0xB4 JUMP JUMPDEST DUP1 PUSH1 0x0 DUP1 PUSH2 0x100 EXP DUP2 SLOAD DUP2 PUSH20 0xFFFFFFFFFFFFFFFFFFFFFFFFFFFFFFFFFFFFFFFF MUL NOT AND SWAP1 DUP4 PUSH20 0xFFFFFFFFFFFFFFFFFFFFFFFFFFFFFFFFFFFFFFFF AND MUL OR SWAP1 SSTORE POP DUP2 PUSH1 0x1 DUP2 SWAP1 SSTORE POP POP POP PUSH3 0x172 JUMP JUMPDEST PUSH1 0x0 DUP2 MLOAD SWAP1 POP PUSH3 0x97 DUP2 PUSH3 0x13E JUMP JUMPDEST SWAP3 SWAP2 POP POP JUMP JUMPDEST PUSH1 0x0 DUP2 MLOAD SWAP1 POP PUSH3 0xAE DUP2 PUSH3 0x158 JUMP JUMPDEST SWAP3 SWAP2 POP POP JUMP JUMPDEST PUSH1 0x0 DUP1 PUSH1 0x40 DUP4 DUP6 SUB SLT ISZERO PUSH3 0xCE JUMPI PUSH3 0xCD PUSH3 0x139 JUMP JUMPDEST JUMPDEST PUSH1 0x0 PUSH3 0xDE DUP6 DUP3 DUP7 ADD PUSH3 0x9D JUMP JUMPDEST SWAP3 POP POP PUSH1 0x20 PUSH3 0xF1 DUP6 DUP3 DUP7 ADD PUSH3 0x86 JUMP JUMPDEST SWAP2 POP POP SWAP3 POP SWAP3 SWAP1 POP JUMP JUMPDEST PUSH1 0x0 PUSH3 0x108 DUP3 PUSH3 0x10F JUMP JUMPDEST SWAP1 POP SWAP2 SWAP1 POP JUMP JUMPDEST PUSH1 0x0 PUSH20 0xFFFFFFFFFFFFFFFFFFFFFFFFFFFFFFFFFFFFFFFF DUP3 AND SWAP1 POP SWAP2 SWAP1 POP JUMP JUMPDEST PUSH1 0x0 DUP2 SWAP1 POP SWAP2 SWAP1 POP JUMP JUMPDEST PUSH1 0x0 DUP1 REVERT JUMPDEST PUSH3 0x149 DUP2 PUSH3 0xFB JUMP JUMPDEST DUP2 EQ PUSH3 0x155 JUMPI PUSH1 0x0 DUP1 REVERT JUMPDEST POP JUMP JUMPDEST PUSH3 0x163 DUP2 PUSH3 0x12F JUMP JUMPDEST DUP2 EQ PUSH3 0x16F JUMPI PUSH1 0x0 DUP1 REVERT JUMPDEST POP JUMP JUMPDEST PUSH2 0xE6B DUP1 PUSH3 0x182 PUSH1 0x0 CODECOPY PUSH1 0x0 RETURN INVALID PUSH1 0x80 PUSH1 0x40 MSTORE PUSH1 0x4 CALLDATASIZE LT PUSH2 0x7B JUMPI PUSH1 0x0 CALLDATALOAD PUSH1 0xE0 SHR DUP1 PUSH4 0x8A9CFD55 GT PUSH2 0x4E JUMPI DUP1 PUSH4 0x8A9CFD55 EQ PUSH2 0x152 JUMPI DUP1 PUSH4 0x937E09B1 EQ PUSH2 0x17B JUMPI DUP1 PUSH4 0xD7BB99BA EQ PUSH2 0x1A6 JUMPI DUP1 PUSH4 0xD7D1BBDB EQ PUSH2 0x1B0 JUMPI PUSH2 0x7B JUMP JUMPDEST DUP1 PUSH4 0x3441006 EQ PUSH2 0x80 JUMPI DUP1 PUSH4 0xA144391 EQ PUSH2 0xA9 JUMPI DUP1 PUSH4 0x481C6A75 EQ PUSH2 0xE6 JUMPI DUP1 PUSH4 0x81D12C58 EQ PUSH2 0x111 JUMPI JUMPDEST PUSH1 0x0 DUP1 REVERT JUMPDEST CALLVALUE DUP1 ISZERO PUSH2 0x8C JUMPI PUSH1 0x0 DUP1 REVERT JUMPDEST POP PUSH2 0xA7 PUSH1 0x4 DUP1 CALLDATASIZE SUB DUP2 ADD SWAP1 PUSH2 0xA2 SWAP2 SWAP1 PUSH2 0x95D JUMP JUMPDEST PUSH2 0x1D9 JUMP JUMPDEST STOP JUMPDEST CALLVALUE DUP1 ISZERO PUSH2 0xB5 JUMPI PUSH1 0x0 DUP1 REVERT JUMPDEST POP PUSH2 0xD0 PUSH1 0x4 DUP1 CALLDATASIZE SUB DUP2 ADD SWAP1 PUSH2 0xCB SWAP2 SWAP1 PUSH2 0x8C1 JUMP JUMPDEST PUSH2 0x37A JUMP JUMPDEST PUSH1 0x40 MLOAD PUSH2 0xDD SWAP2 SWAP1 PUSH2 0xA66 JUMP JUMPDEST PUSH1 0x40 MLOAD DUP1 SWAP2 SUB SWAP1 RETURN JUMPDEST CALLVALUE DUP1 ISZERO PUSH2 0xF2 JUMPI PUSH1 0x0 DUP1 REVERT JUMPDEST POP PUSH2 0xFB PUSH2 0x39A JUMP JUMPDEST PUSH1 0x40 MLOAD PUSH2 0x108 SWAP2 SWAP1 PUSH2 0xA4B JUMP JUMPDEST PUSH1 0x40 MLOAD DUP1 SWAP2 SUB SWAP1 RETURN JUMPDEST CALLVALUE DUP1 ISZERO PUSH2 0x11D JUMPI PUSH1 0x0 DUP1 REVERT JUMPDEST POP PUSH2 0x138 PUSH1 0x4 DUP1 CALLDATASIZE SUB DUP2 ADD SWAP1 PUSH2 0x133 SWAP2 SWAP1 PUSH2 0x95D JUMP JUMPDEST PUSH2 0x3BE JUMP JUMPDEST PUSH1 0x40 MLOAD PUSH2 0x149 SWAP6 SWAP5 SWAP4 SWAP3 SWAP2 SWAP1 PUSH2 0xA81 JUMP JUMPDEST PUSH1 0x40 MLOAD DUP1 SWAP2 SUB SWAP1 RETURN JUMPDEST CALLVALUE DUP1 ISZERO PUSH2 0x15E JUMPI PUSH1 0x0 DUP1 REVERT JUMPDEST POP PUSH2 0x179 PUSH1 0x4 DUP1 CALLDATASIZE SUB DUP2 ADD SWAP1 PUSH2 0x174 SWAP2 SWAP1 PUSH2 0x8EE JUMP JUMPDEST PUSH2 0x4A9 JUMP JUMPDEST STOP JUMPDEST CALLVALUE DUP1 ISZERO PUSH2 0x187 JUMPI PUSH1 0x0 DUP1 REVERT JUMPDEST POP PUSH2 0x190 PUSH2 0x5C0 JUMP JUMPDEST PUSH1 0x40 MLOAD PUSH2 0x19D SWAP2 SWAP1 PUSH2 0xAFB JUMP JUMPDEST PUSH1 0x40 MLOAD DUP1 SWAP2 SUB SWAP1 RETURN JUMPDEST PUSH2 0x1AE PUSH2 0x5C6 JUMP JUMPDEST STOP JUMPDEST CALLVALUE DUP1 ISZERO PUSH2 0x1BC JUMPI PUSH1 0x0 DUP1 REVERT JUMPDEST POP PUSH2 0x1D7 PUSH1 0x4 DUP1 CALLDATASIZE SUB DUP2 ADD SWAP1 PUSH2 0x1D2 SWAP2 SWAP1 PUSH2 0x95D JUMP JUMPDEST PUSH2 0x646 JUMP JUMPDEST STOP JUMPDEST PUSH1 0x0 DUP1 SLOAD SWAP1 PUSH2 0x100 EXP SWAP1 DIV PUSH20 0xFFFFFFFFFFFFFFFFFFFFFFFFFFFFFFFFFFFFFFFF AND PUSH20 0xFFFFFFFFFFFFFFFFFFFFFFFFFFFFFFFFFFFFFFFF AND CALLER PUSH20 0xFFFFFFFFFFFFFFFFFFFFFFFFFFFFFFFFFFFFFFFF AND EQ PUSH2 0x231 JUMPI PUSH1 0x0 DUP1 REVERT JUMPDEST PUSH1 0x0 PUSH1 0x3 PUSH1 0x0 DUP4 DUP2 MSTORE PUSH1 0x20 ADD SWAP1 DUP2 MSTORE PUSH1 0x20 ADD PUSH1 0x0 KECCAK256 SWAP1 POP PUSH1 0x2 PUSH1 0x5 SLOAD PUSH2 0x257 SWAP2 SWAP1 PUSH2 0xB93 JUMP JUMPDEST DUP2 PUSH1 0x3 ADD SLOAD GT PUSH2 0x266 JUMPI PUSH1 0x0 DUP1 REVERT JUMPDEST DUP1 PUSH1 0x2 ADD PUSH1 0x14 SWAP1 SLOAD SWAP1 PUSH2 0x100 EXP SWAP1 DIV PUSH1 0xFF AND ISZERO PUSH2 0x282 JUMPI PUSH1 0x0 DUP1 REVERT JUMPDEST PUSH1 0x0 DUP2 PUSH1 0x2 ADD PUSH1 0x0 SWAP1 SLOAD SWAP1 PUSH2 0x100 EXP SWAP1 DIV PUSH20 0xFFFFFFFFFFFFFFFFFFFFFFFFFFFFFFFFFFFFFFFF AND SWAP1 POP PUSH1 0x1 DUP3 PUSH1 0x2 ADD PUSH1 0x14 PUSH2 0x100 EXP DUP2 SLOAD DUP2 PUSH1 0xFF MUL NOT AND SWAP1 DUP4 ISZERO ISZERO MUL OR SWAP1 SSTORE POP PUSH1 0x0 DUP2 PUSH20 0xFFFFFFFFFFFFFFFFFFFFFFFFFFFFFFFFFFFFFFFF AND SELFBALANCE PUSH1 0x40 MLOAD PUSH2 0x2EE SWAP1 PUSH2 0xA36 JUMP JUMPDEST PUSH1 0x0 PUSH1 0x40 MLOAD DUP1 DUP4 SUB DUP2 DUP6 DUP8 GAS CALL SWAP3 POP POP POP RETURNDATASIZE DUP1 PUSH1 0x0 DUP2 EQ PUSH2 0x32B JUMPI PUSH1 0x40 MLOAD SWAP2 POP PUSH1 0x1F NOT PUSH1 0x3F RETURNDATASIZE ADD AND DUP3 ADD PUSH1 0x40 MSTORE RETURNDATASIZE DUP3 MSTORE RETURNDATASIZE PUSH1 0x0 PUSH1 0x20 DUP5 ADD RETURNDATACOPY PUSH2 0x330 JUMP JUMPDEST PUSH1 0x60 SWAP2 POP JUMPDEST POP POP SWAP1 POP DUP1 PUSH2 0x374 JUMPI PUSH1 0x40 MLOAD PUSH32 0x8C379A000000000000000000000000000000000000000000000000000000000 DUP2 MSTORE PUSH1 0x4 ADD PUSH2 0x36B SWAP1 PUSH2 0xADB JUMP JUMPDEST PUSH1 0x40 MLOAD DUP1 SWAP2 SUB SWAP1 REVERT JUMPDEST POP POP POP POP JUMP JUMPDEST PUSH1 0x2 PUSH1 0x20 MSTORE DUP1 PUSH1 0x0 MSTORE PUSH1 0x40 PUSH1 0x0 KECCAK256 PUSH1 0x0 SWAP2 POP SLOAD SWAP1 PUSH2 0x100 EXP SWAP1 DIV PUSH1 0xFF AND DUP2 JUMP JUMPDEST PUSH1 0x0 DUP1 SLOAD SWAP1 PUSH2 0x100 EXP SWAP1 DIV PUSH20 0xFFFFFFFFFFFFFFFFFFFFFFFFFFFFFFFFFFFFFFFF AND DUP2 JUMP JUMPDEST PUSH1 0x3 PUSH1 0x20 MSTORE DUP1 PUSH1 0x0 MSTORE PUSH1 0x40 PUSH1 0x0 KECCAK256 PUSH1 0x0 SWAP2 POP SWAP1 POP DUP1 PUSH1 0x0 ADD DUP1 SLOAD PUSH2 0x3E1 SWAP1 PUSH2 0xC4E JUMP JUMPDEST DUP1 PUSH1 0x1F ADD PUSH1 0x20 DUP1 SWAP2 DIV MUL PUSH1 0x20 ADD PUSH1 0x40 MLOAD SWAP1 DUP2 ADD PUSH1 0x40 MSTORE DUP1 SWAP3 SWAP2 SWAP1 DUP2 DUP2 MSTORE PUSH1 0x20 ADD DUP3 DUP1 SLOAD PUSH2 0x40D SWAP1 PUSH2 0xC4E JUMP JUMPDEST DUP1 ISZERO PUSH2 0x45A JUMPI DUP1 PUSH1 0x1F LT PUSH2 0x42F JUMPI PUSH2 0x100 DUP1 DUP4 SLOAD DIV MUL DUP4 MSTORE SWAP2 PUSH1 0x20 ADD SWAP2 PUSH2 0x45A JUMP JUMPDEST DUP3 ADD SWAP2 SWAP1 PUSH1 0x0 MSTORE PUSH1 0x20 PUSH1 0x0 KECCAK256 SWAP1 JUMPDEST DUP2 SLOAD DUP2 MSTORE SWAP1 PUSH1 0x1 ADD SWAP1 PUSH1 0x20 ADD DUP1 DUP4 GT PUSH2 0x43D JUMPI DUP3 SWAP1 SUB PUSH1 0x1F AND DUP3 ADD SWAP2 JUMPDEST POP POP POP POP POP SWAP1 DUP1 PUSH1 0x1 ADD SLOAD SWAP1 DUP1 PUSH1 0x2 ADD PUSH1 0x0 SWAP1 SLOAD SWAP1 PUSH2 0x100 EXP SWAP1 DIV PUSH20 0xFFFFFFFFFFFFFFFFFFFFFFFFFFFFFFFFFFFFFFFF AND SWAP1 DUP1 PUSH1 0x2 ADD PUSH1 0x14 SWAP1 SLOAD SWAP1 PUSH2 0x100 EXP SWAP1 DIV PUSH1 0xFF AND SWAP1 DUP1 PUSH1 0x3 ADD SLOAD SWAP1 POP DUP6 JUMP JUMPDEST PUSH1 0x0 DUP1 SLOAD SWAP1 PUSH2 0x100 EXP SWAP1 DIV PUSH20 0xFFFFFFFFFFFFFFFFFFFFFFFFFFFFFFFFFFFFFFFF AND PUSH20 0xFFFFFFFFFFFFFFFFFFFFFFFFFFFFFFFFFFFFFFFF AND CALLER PUSH20 0xFFFFFFFFFFFFFFFFFFFFFFFFFFFFFFFFFFFFFFFF AND EQ PUSH2 0x501 JUMPI PUSH1 0x0 DUP1 REVERT JUMPDEST PUSH1 0x0 PUSH1 0x3 PUSH1 0x0 PUSH1 0x4 PUSH1 0x0 DUP2 SLOAD DUP1 SWAP3 SWAP2 SWAP1 PUSH2 0x51A SWAP1 PUSH2 0xCB1 JUMP JUMPDEST SWAP2 SWAP1 POP SSTORE DUP2 MSTORE PUSH1 0x20 ADD SWAP1 DUP2 MSTORE PUSH1 0x20 ADD PUSH1 0x0 KECCAK256 SWAP1 POP DUP4 DUP2 PUSH1 0x0 ADD SWAP1 DUP1 MLOAD SWAP1 PUSH1 0x20 ADD SWAP1 PUSH2 0x546 SWAP3 SWAP2 SWAP1 PUSH2 0x784 JUMP JUMPDEST POP DUP3 DUP2 PUSH1 0x1 ADD DUP2 SWAP1 SSTORE POP DUP2 DUP2 PUSH1 0x2 ADD PUSH1 0x0 PUSH2 0x100 EXP DUP2 SLOAD DUP2 PUSH20 0xFFFFFFFFFFFFFFFFFFFFFFFFFFFFFFFFFFFFFFFF MUL NOT AND SWAP1 DUP4 PUSH20 0xFFFFFFFFFFFFFFFFFFFFFFFFFFFFFFFFFFFFFFFF AND MUL OR SWAP1 SSTORE POP PUSH1 0x0 DUP2 PUSH1 0x2 ADD PUSH1 0x14 PUSH2 0x100 EXP DUP2 SLOAD DUP2 PUSH1 0xFF MUL NOT AND SWAP1 DUP4 ISZERO ISZERO MUL OR SWAP1 SSTORE POP PUSH1 0x0 DUP2 PUSH1 0x3 ADD DUP2 SWAP1 SSTORE POP POP POP POP POP JUMP JUMPDEST PUSH1 0x1 SLOAD DUP2 JUMP JUMPDEST PUSH1 0x1 SLOAD CALLVALUE GT PUSH2 0x5D4 JUMPI PUSH1 0x0 DUP1 REVERT JUMPDEST PUSH1 0x1 PUSH1 0x2 PUSH1 0x0 CALLER PUSH20 0xFFFFFFFFFFFFFFFFFFFFFFFFFFFFFFFFFFFFFFFF AND PUSH20 0xFFFFFFFFFFFFFFFFFFFFFFFFFFFFFFFFFFFFFFFF AND DUP2 MSTORE PUSH1 0x20 ADD SWAP1 DUP2 MSTORE PUSH1 0x20 ADD PUSH1 0x0 KECCAK256 PUSH1 0x0 PUSH2 0x100 EXP DUP2 SLOAD DUP2 PUSH1 0xFF MUL NOT AND SWAP1 DUP4 ISZERO ISZERO MUL OR SWAP1 SSTORE POP PUSH1 0x5 PUSH1 0x0 DUP2 SLOAD DUP1 SWAP3 SWAP2 SWAP1 PUSH2 0x63F SWAP1 PUSH2 0xCB1 JUMP JUMPDEST SWAP2 SWAP1 POP SSTORE POP JUMP JUMPDEST PUSH1 0x0 PUSH1 0x3 PUSH1 0x0 DUP4 DUP2 MSTORE PUSH1 0x20 ADD SWAP1 DUP2 MSTORE PUSH1 0x20 ADD PUSH1 0x0 KECCAK256 SWAP1 POP PUSH1 0x2 PUSH1 0x0 CALLER PUSH20 0xFFFFFFFFFFFFFFFFFFFFFFFFFFFFFFFFFFFFFFFF AND PUSH20 0xFFFFFFFFFFFFFFFFFFFFFFFFFFFFFFFFFFFFFFFF AND DUP2 MSTORE PUSH1 0x20 ADD SWAP1 DUP2 MSTORE PUSH1 0x20 ADD PUSH1 0x0 KECCAK256 PUSH1 0x0 SWAP1 SLOAD SWAP1 PUSH2 0x100 EXP SWAP1 DIV PUSH1 0xFF AND PUSH2 0x6B3 JUMPI PUSH1 0x0 DUP1 REVERT JUMPDEST DUP1 PUSH1 0x4 ADD PUSH1 0x0 CALLER PUSH20 0xFFFFFFFFFFFFFFFFFFFFFFFFFFFFFFFFFFFFFFFF AND PUSH20 0xFFFFFFFFFFFFFFFFFFFFFFFFFFFFFFFFFFFFFFFF AND DUP2 MSTORE PUSH1 0x20 ADD SWAP1 DUP2 MSTORE PUSH1 0x20 ADD PUSH1 0x0 KECCAK256 PUSH1 0x0 SWAP1 SLOAD SWAP1 PUSH2 0x100 EXP SWAP1 DIV PUSH1 0xFF AND ISZERO PUSH2 0x70C JUMPI PUSH1 0x0 DUP1 REVERT JUMPDEST PUSH1 0x1 DUP2 PUSH1 0x4 ADD PUSH1 0x0 CALLER PUSH20 0xFFFFFFFFFFFFFFFFFFFFFFFFFFFFFFFFFFFFFFFF AND PUSH20 0xFFFFFFFFFFFFFFFFFFFFFFFFFFFFFFFFFFFFFFFF AND DUP2 MSTORE PUSH1 0x20 ADD SWAP1 DUP2 MSTORE PUSH1 0x20 ADD PUSH1 0x0 KECCAK256 PUSH1 0x0 PUSH2 0x100 EXP DUP2 SLOAD DUP2 PUSH1 0xFF MUL NOT AND SWAP1 DUP4 ISZERO ISZERO MUL OR SWAP1 SSTORE POP DUP1 PUSH1 0x3 ADD PUSH1 0x0 DUP2 SLOAD DUP1 SWAP3 SWAP2 SWAP1 PUSH2 0x77B SWAP1 PUSH2 0xCB1 JUMP JUMPDEST SWAP2 SWAP1 POP SSTORE POP POP POP JUMP JUMPDEST DUP3 DUP1 SLOAD PUSH2 0x790 SWAP1 PUSH2 0xC4E JUMP JUMPDEST SWAP1 PUSH1 0x0 MSTORE PUSH1 0x20 PUSH1 0x0 KECCAK256 SWAP1 PUSH1 0x1F ADD PUSH1 0x20 SWAP1 DIV DUP2 ADD SWAP3 DUP3 PUSH2 0x7B2 JUMPI PUSH1 0x0 DUP6 SSTORE PUSH2 0x7F9 JUMP JUMPDEST DUP3 PUSH1 0x1F LT PUSH2 0x7CB JUMPI DUP1 MLOAD PUSH1 0xFF NOT AND DUP4 DUP1 ADD OR DUP6 SSTORE PUSH2 0x7F9 JUMP JUMPDEST DUP3 DUP1 ADD PUSH1 0x1 ADD DUP6 SSTORE DUP3 ISZERO PUSH2 0x7F9 JUMPI SWAP2 DUP3 ADD JUMPDEST DUP3 DUP2 GT ISZERO PUSH2 0x7F8 JUMPI DUP3 MLOAD DUP3 SSTORE SWAP2 PUSH1 0x20 ADD SWAP2 SWAP1 PUSH1 0x1 ADD SWAP1 PUSH2 0x7DD JUMP JUMPDEST JUMPDEST POP SWAP1 POP PUSH2 0x806 SWAP2 SWAP1 PUSH2 0x80A JUMP JUMPDEST POP SWAP1 JUMP JUMPDEST JUMPDEST DUP1 DUP3 GT ISZERO PUSH2 0x823 JUMPI PUSH1 0x0 DUP2 PUSH1 0x0 SWAP1 SSTORE POP PUSH1 0x1 ADD PUSH2 0x80B JUMP JUMPDEST POP SWAP1 JUMP JUMPDEST PUSH1 0x0 PUSH2 0x83A PUSH2 0x835 DUP5 PUSH2 0xB3B JUMP JUMPDEST PUSH2 0xB16 JUMP JUMPDEST SWAP1 POP DUP3 DUP2 MSTORE PUSH1 0x20 DUP2 ADD DUP5 DUP5 DUP5 ADD GT ISZERO PUSH2 0x856 JUMPI PUSH2 0x855 PUSH2 0xDBB JUMP JUMPDEST JUMPDEST PUSH2 0x861 DUP5 DUP3 DUP6 PUSH2 0xC0C JUMP JUMPDEST POP SWAP4 SWAP3 POP POP POP JUMP JUMPDEST PUSH1 0x0 DUP2 CALLDATALOAD SWAP1 POP PUSH2 0x878 DUP2 PUSH2 0xE07 JUMP JUMPDEST SWAP3 SWAP2 POP POP JUMP JUMPDEST PUSH1 0x0 DUP3 PUSH1 0x1F DUP4 ADD SLT PUSH2 0x893 JUMPI PUSH2 0x892 PUSH2 0xDB6 JUMP JUMPDEST JUMPDEST DUP2 CALLDATALOAD PUSH2 0x8A3 DUP5 DUP3 PUSH1 0x20 DUP7 ADD PUSH2 0x827 JUMP JUMPDEST SWAP2 POP POP SWAP3 SWAP2 POP POP JUMP JUMPDEST PUSH1 0x0 DUP2 CALLDATALOAD SWAP1 POP PUSH2 0x8BB DUP2 PUSH2 0xE1E JUMP JUMPDEST SWAP3 SWAP2 POP POP JUMP JUMPDEST PUSH1 0x0 PUSH1 0x20 DUP3 DUP5 SUB SLT ISZERO PUSH2 0x8D7 JUMPI PUSH2 0x8D6 PUSH2 0xDC5 JUMP JUMPDEST JUMPDEST PUSH1 0x0 PUSH2 0x8E5 DUP5 DUP3 DUP6 ADD PUSH2 0x869 JUMP JUMPDEST SWAP2 POP POP SWAP3 SWAP2 POP POP JUMP JUMPDEST PUSH1 0x0 DUP1 PUSH1 0x0 PUSH1 0x60 DUP5 DUP7 SUB SLT ISZERO PUSH2 0x907 JUMPI PUSH2 0x906 PUSH2 0xDC5 JUMP JUMPDEST JUMPDEST PUSH1 0x0 DUP5 ADD CALLDATALOAD PUSH8 0xFFFFFFFFFFFFFFFF DUP2 GT ISZERO PUSH2 0x925 JUMPI PUSH2 0x924 PUSH2 0xDC0 JUMP JUMPDEST JUMPDEST PUSH2 0x931 DUP7 DUP3 DUP8 ADD PUSH2 0x87E JUMP JUMPDEST SWAP4 POP POP PUSH1 0x20 PUSH2 0x942 DUP7 DUP3 DUP8 ADD PUSH2 0x8AC JUMP JUMPDEST SWAP3 POP POP PUSH1 0x40 PUSH2 0x953 DUP7 DUP3 DUP8 ADD PUSH2 0x869 JUMP JUMPDEST SWAP2 POP POP SWAP3 POP SWAP3 POP SWAP3 JUMP JUMPDEST PUSH1 0x0 PUSH1 0x20 DUP3 DUP5 SUB SLT ISZERO PUSH2 0x973 JUMPI PUSH2 0x972 PUSH2 0xDC5 JUMP JUMPDEST JUMPDEST PUSH1 0x0 PUSH2 0x981 DUP5 DUP3 DUP6 ADD PUSH2 0x8AC JUMP JUMPDEST SWAP2 POP POP SWAP3 SWAP2 POP POP JUMP JUMPDEST PUSH2 0x993 DUP2 PUSH2 0xBC4 JUMP JUMPDEST DUP3 MSTORE POP POP JUMP JUMPDEST PUSH2 0x9A2 DUP2 PUSH2 0xBD6 JUMP JUMPDEST DUP3 MSTORE POP POP JUMP JUMPDEST PUSH1 0x0 PUSH2 0x9B3 DUP3 PUSH2 0xB6C JUMP JUMPDEST PUSH2 0x9BD DUP2 DUP6 PUSH2 0xB82 JUMP JUMPDEST SWAP4 POP PUSH2 0x9CD DUP2 DUP6 PUSH1 0x20 DUP7 ADD PUSH2 0xC1B JUMP JUMPDEST PUSH2 0x9D6 DUP2 PUSH2 0xDCA JUMP JUMPDEST DUP5 ADD SWAP2 POP POP SWAP3 SWAP2 POP POP JUMP JUMPDEST PUSH1 0x0 PUSH2 0x9EE PUSH1 0xE DUP4 PUSH2 0xB82 JUMP JUMPDEST SWAP2 POP PUSH2 0x9F9 DUP3 PUSH2 0xDDB JUMP JUMPDEST PUSH1 0x20 DUP3 ADD SWAP1 POP SWAP2 SWAP1 POP JUMP JUMPDEST PUSH1 0x0 PUSH2 0xA11 PUSH1 0x0 DUP4 PUSH2 0xB77 JUMP JUMPDEST SWAP2 POP PUSH2 0xA1C DUP3 PUSH2 0xE04 JUMP JUMPDEST PUSH1 0x0 DUP3 ADD SWAP1 POP SWAP2 SWAP1 POP JUMP JUMPDEST PUSH2 0xA30 DUP2 PUSH2 0xC02 JUMP JUMPDEST DUP3 MSTORE POP POP JUMP JUMPDEST PUSH1 0x0 PUSH2 0xA41 DUP3 PUSH2 0xA04 JUMP JUMPDEST SWAP2 POP DUP2 SWAP1 POP SWAP2 SWAP1 POP JUMP JUMPDEST PUSH1 0x0 PUSH1 0x20 DUP3 ADD SWAP1 POP PUSH2 0xA60 PUSH1 0x0 DUP4 ADD DUP5 PUSH2 0x98A JUMP JUMPDEST SWAP3 SWAP2 POP POP JUMP JUMPDEST PUSH1 0x0 PUSH1 0x20 DUP3 ADD SWAP1 POP PUSH2 0xA7B PUSH1 0x0 DUP4 ADD DUP5 PUSH2 0x999 JUMP JUMPDEST SWAP3 SWAP2 POP POP JUMP JUMPDEST PUSH1 0x0 PUSH1 0xA0 DUP3 ADD SWAP1 POP DUP2 DUP2 SUB PUSH1 0x0 DUP4 ADD MSTORE PUSH2 0xA9B DUP2 DUP9 PUSH2 0x9A8 JUMP JUMPDEST SWAP1 POP PUSH2 0xAAA PUSH1 0x20 DUP4 ADD DUP8 PUSH2 0xA27 JUMP JUMPDEST PUSH2 0xAB7 PUSH1 0x40 DUP4 ADD DUP7 PUSH2 0x98A JUMP JUMPDEST PUSH2 0xAC4 PUSH1 0x60 DUP4 ADD DUP6 PUSH2 0x999 JUMP JUMPDEST PUSH2 0xAD1 PUSH1 0x80 DUP4 ADD DUP5 PUSH2 0xA27 JUMP JUMPDEST SWAP7 SWAP6 POP POP POP POP POP POP JUMP JUMPDEST PUSH1 0x0 PUSH1 0x20 DUP3 ADD SWAP1 POP DUP2 DUP2 SUB PUSH1 0x0 DUP4 ADD MSTORE PUSH2 0xAF4 DUP2 PUSH2 0x9E1 JUMP JUMPDEST SWAP1 POP SWAP2 SWAP1 POP JUMP JUMPDEST PUSH1 0x0 PUSH1 0x20 DUP3 ADD SWAP1 POP PUSH2 0xB10 PUSH1 0x0 DUP4 ADD DUP5 PUSH2 0xA27 JUMP JUMPDEST SWAP3 SWAP2 POP POP JUMP JUMPDEST PUSH1 0x0 PUSH2 0xB20 PUSH2 0xB31 JUMP JUMPDEST SWAP1 POP PUSH2 0xB2C DUP3 DUP3 PUSH2 0xC80 JUMP JUMPDEST SWAP2 SWAP1 POP JUMP JUMPDEST PUSH1 0x0 PUSH1 0x40 MLOAD SWAP1 POP SWAP1 JUMP JUMPDEST PUSH1 0x0 PUSH8 0xFFFFFFFFFFFFFFFF DUP3 GT ISZERO PUSH2 0xB56 JUMPI PUSH2 0xB55 PUSH2 0xD87 JUMP JUMPDEST JUMPDEST PUSH2 0xB5F DUP3 PUSH2 0xDCA JUMP JUMPDEST SWAP1 POP PUSH1 0x20 DUP2 ADD SWAP1 POP SWAP2 SWAP1 POP JUMP JUMPDEST PUSH1 0x0 DUP2 MLOAD SWAP1 POP SWAP2 SWAP1 POP JUMP JUMPDEST PUSH1 0x0 DUP2 SWAP1 POP SWAP3 SWAP2 POP POP JUMP JUMPDEST PUSH1 0x0 DUP3 DUP3 MSTORE PUSH1 0x20 DUP3 ADD SWAP1 POP SWAP3 SWAP2 POP POP JUMP JUMPDEST PUSH1 0x0 PUSH2 0xB9E DUP3 PUSH2 0xC02 JUMP JUMPDEST SWAP2 POP PUSH2 0xBA9 DUP4 PUSH2 0xC02 JUMP JUMPDEST SWAP3 POP DUP3 PUSH2 0xBB9 JUMPI PUSH2 0xBB8 PUSH2 0xD29 JUMP JUMPDEST JUMPDEST DUP3 DUP3 DIV SWAP1 POP SWAP3 SWAP2 POP POP JUMP JUMPDEST PUSH1 0x0 PUSH2 0xBCF DUP3 PUSH2 0xBE2 JUMP JUMPDEST SWAP1 POP SWAP2 SWAP1 POP JUMP JUMPDEST PUSH1 0x0 DUP2 ISZERO ISZERO SWAP1 POP SWAP2 SWAP1 POP JUMP JUMPDEST PUSH1 0x0 PUSH20 0xFFFFFFFFFFFFFFFFFFFFFFFFFFFFFFFFFFFFFFFF DUP3 AND SWAP1 POP SWAP2 SWAP1 POP JUMP JUMPDEST PUSH1 0x0 DUP2 SWAP1 POP SWAP2 SWAP1 POP JUMP JUMPDEST DUP3 DUP2 DUP4 CALLDATACOPY PUSH1 0x0 DUP4 DUP4 ADD MSTORE POP POP POP JUMP JUMPDEST PUSH1 0x0 JUMPDEST DUP4 DUP2 LT ISZERO PUSH2 0xC39 JUMPI DUP1 DUP3 ADD MLOAD DUP2 DUP5 ADD MSTORE PUSH1 0x20 DUP2 ADD SWAP1 POP PUSH2 0xC1E JUMP JUMPDEST DUP4 DUP2 GT ISZERO PUSH2 0xC48 JUMPI PUSH1 0x0 DUP5 DUP5 ADD MSTORE JUMPDEST POP POP POP POP JUMP JUMPDEST PUSH1 0x0 PUSH1 0x2 DUP3 DIV SWAP1 POP PUSH1 0x1 DUP3 AND DUP1 PUSH2 0xC66 JUMPI PUSH1 0x7F DUP3 AND SWAP2 POP JUMPDEST PUSH1 0x20 DUP3 LT DUP2 EQ ISZERO PUSH2 0xC7A JUMPI PUSH2 0xC79 PUSH2 0xD58 JUMP JUMPDEST JUMPDEST POP SWAP2 SWAP1 POP JUMP JUMPDEST PUSH2 0xC89 DUP3 PUSH2 0xDCA JUMP JUMPDEST DUP2 ADD DUP2 DUP2 LT PUSH8 0xFFFFFFFFFFFFFFFF DUP3 GT OR ISZERO PUSH2 0xCA8 JUMPI PUSH2 0xCA7 PUSH2 0xD87 JUMP JUMPDEST JUMPDEST DUP1 PUSH1 0x40 MSTORE POP POP POP JUMP JUMPDEST PUSH1 0x0 PUSH2 0xCBC DUP3 PUSH2 0xC02 JUMP JUMPDEST SWAP2 POP PUSH32 0xFFFFFFFFFFFFFFFFFFFFFFFFFFFFFFFFFFFFFFFFFFFFFFFFFFFFFFFFFFFFFFFF DUP3 EQ ISZERO PUSH2 0xCEF JUMPI PUSH2 0xCEE PUSH2 0xCFA JUMP JUMPDEST JUMPDEST PUSH1 0x1 DUP3 ADD SWAP1 POP SWAP2 SWAP1 POP JUMP JUMPDEST PUSH32 0x4E487B7100000000000000000000000000000000000000000000000000000000 PUSH1 0x0 MSTORE PUSH1 0x11 PUSH1 0x4 MSTORE PUSH1 0x24 PUSH1 0x0 REVERT JUMPDEST PUSH32 0x4E487B7100000000000000000000000000000000000000000000000000000000 PUSH1 0x0 MSTORE PUSH1 0x12 PUSH1 0x4 MSTORE PUSH1 0x24 PUSH1 0x0 REVERT JUMPDEST PUSH32 0x4E487B7100000000000000000000000000000000000000000000000000000000 PUSH1 0x0 MSTORE PUSH1 0x22 PUSH1 0x4 MSTORE PUSH1 0x24 PUSH1 0x0 REVERT JUMPDEST PUSH32 0x4E487B7100000000000000000000000000000000000000000000000000000000 PUSH1 0x0 MSTORE PUSH1 0x41 PUSH1 0x4 MSTORE PUSH1 0x24 PUSH1 0x0 REVERT JUMPDEST PUSH1 0x0 DUP1 REVERT JUMPDEST PUSH1 0x0 DUP1 REVERT JUMPDEST PUSH1 0x0 DUP1 REVERT JUMPDEST PUSH1 0x0 DUP1 REVERT JUMPDEST PUSH1 0x0 PUSH1 0x1F NOT PUSH1 0x1F DUP4 ADD AND SWAP1 POP SWAP2 SWAP1 POP JUMP JUMPDEST PUSH32 0x4574686572206E6F742073656E74000000000000000000000000000000000000 PUSH1 0x0 DUP3 ADD MSTORE POP JUMP JUMPDEST POP JUMP JUMPDEST PUSH2 0xE10 DUP2 PUSH2 0xBC4 JUMP JUMPDEST DUP2 EQ PUSH2 0xE1B JUMPI PUSH1 0x0 DUP1 REVERT JUMPDEST POP JUMP JUMPDEST PUSH2 0xE27 DUP2 PUSH2 0xC02 JUMP JUMPDEST DUP2 EQ PUSH2 0xE32 JUMPI PUSH1 0x0 DUP1 REVERT JUMPDEST POP JUMP INVALID LOG2 PUSH5 0x6970667358 0x22 SLT KECCAK256 PUSH21 0x3D20D853B38088A1CB9D9D9DA1034DC3A97D95F98 SLOAD 0xBF 0xE4 POP SDIV 0x1E DUP10 JUMPI PUSH32 0x4064736F6C634300080700330000000000000000000000000000000000000000 "
				},
				"gasEstimates": {
					"creation": {
						"codeDepositCost": "738200",
						"executionCost": "infinite",
						"totalCost": "infinite"
					},
					"external": {
						"approveRequest(uint256)": "infinite",
						"approvers(address)": "2868",
						"contribute()": "51002",
						"createRequest(string,uint256,address)": "infinite",
						"finalizeRequest(uint256)": "infinite",
						"manager()": "2556",
						"minimumContribution()": "2451",
						"requests(uint256)": "infinite"
					}
				},
				"methodIdentifiers": {
					"approveRequest(uint256)": "d7d1bbdb",
					"approvers(address)": "0a144391",
					"contribute()": "d7bb99ba",
					"createRequest(string,uint256,address)": "8a9cfd55",
					"finalizeRequest(uint256)": "03441006",
					"manager()": "481c6a75",
					"minimumContribution()": "937e09b1",
					"requests(uint256)": "81d12c58"
				}
			},
			"storageLayout": {
				"storage": [
					{
						"astId": 59,
						"contract": "contracts/campaign.sol:Campaign",
						"label": "manager",
						"offset": 0,
						"slot": "0",
						"type": "t_address"
					},
					{
						"astId": 61,
						"contract": "contracts/campaign.sol:Campaign",
						"label": "minimumContribution",
						"offset": 0,
						"slot": "1",
						"type": "t_uint256"
					},
					{
						"astId": 65,
						"contract": "contracts/campaign.sol:Campaign",
						"label": "approvers",
						"offset": 0,
						"slot": "2",
						"type": "t_mapping(t_address,t_bool)"
					},
					{
						"astId": 70,
						"contract": "contracts/campaign.sol:Campaign",
						"label": "requests",
						"offset": 0,
						"slot": "3",
						"type": "t_mapping(t_uint256,t_struct(Request)57_storage)"
					},
					{
						"astId": 72,
						"contract": "contracts/campaign.sol:Campaign",
						"label": "numRequests",
						"offset": 0,
						"slot": "4",
						"type": "t_uint256"
					},
					{
						"astId": 74,
						"contract": "contracts/campaign.sol:Campaign",
						"label": "numApprovers",
						"offset": 0,
						"slot": "5",
						"type": "t_uint256"
					}
				],
				"types": {
					"t_address": {
						"encoding": "inplace",
						"label": "address",
						"numberOfBytes": "20"
					},
					"t_bool": {
						"encoding": "inplace",
						"label": "bool",
						"numberOfBytes": "1"
					},
					"t_mapping(t_address,t_bool)": {
						"encoding": "mapping",
						"key": "t_address",
						"label": "mapping(address => bool)",
						"numberOfBytes": "32",
						"value": "t_bool"
					},
					"t_mapping(t_uint256,t_struct(Request)57_storage)": {
						"encoding": "mapping",
						"key": "t_uint256",
						"label": "mapping(uint256 => struct Campaign.Request)",
						"numberOfBytes": "32",
						"value": "t_struct(Request)57_storage"
					},
					"t_string_storage": {
						"encoding": "bytes",
						"label": "string",
						"numberOfBytes": "32"
					},
					"t_struct(Request)57_storage": {
						"encoding": "inplace",
						"label": "struct Campaign.Request",
						"members": [
							{
								"astId": 44,
								"contract": "contracts/campaign.sol:Campaign",
								"label": "description",
								"offset": 0,
								"slot": "0",
								"type": "t_string_storage"
							},
							{
								"astId": 46,
								"contract": "contracts/campaign.sol:Campaign",
								"label": "value",
								"offset": 0,
								"slot": "1",
								"type": "t_uint256"
							},
							{
								"astId": 48,
								"contract": "contracts/campaign.sol:Campaign",
								"label": "recipient",
								"offset": 0,
								"slot": "2",
								"type": "t_address"
							},
							{
								"astId": 50,
								"contract": "contracts/campaign.sol:Campaign",
								"label": "complete",
								"offset": 20,
								"slot": "2",
								"type": "t_bool"
							},
							{
								"astId": 52,
								"contract": "contracts/campaign.sol:Campaign",
								"label": "approvalCount",
								"offset": 0,
								"slot": "3",
								"type": "t_uint256"
							},
							{
								"astId": 56,
								"contract": "contracts/campaign.sol:Campaign",
								"label": "approvals",
								"offset": 0,
								"slot": "4",
								"type": "t_mapping(t_address,t_bool)"
							}
						],
						"numberOfBytes": "160"
					},
					"t_uint256": {
						"encoding": "inplace",
						"label": "uint256",
						"numberOfBytes": "32"
					}
				}
			},
			"userdoc": {
				"kind": "user",
				"methods": {},
				"version": 1
			}
		}
	}
}